{
  "_format": "hh-sol-artifact-1",
  "contractName": "ApprovedContract",
  "sourceName": "contracts/ApprovedContract.sol",
  "abi": [
    {
      "anonymous": false,
      "inputs": [
        {
          "indexed": false,
          "internalType": "uint256",
          "name": "issueId",
          "type": "uint256"
        },
        {
          "indexed": false,
          "internalType": "uint256",
          "name": "contractorId",
          "type": "uint256"
        },
        {
          "indexed": false,
          "internalType": "uint256",
          "name": "projectId",
          "type": "uint256"
        },
        {
          "indexed": false,
          "internalType": "string",
          "name": "name",
          "type": "string"
        },
        {
          "indexed": false,
          "internalType": "uint256",
          "name": "tenure",
          "type": "uint256"
        },
        {
          "indexed": false,
          "internalType": "uint256",
          "name": "amount",
          "type": "uint256"
        },
        {
          "indexed": false,
          "internalType": "string",
          "name": "location",
          "type": "string"
        },
        {
          "indexed": false,
          "internalType": "string",
          "name": "verifiedBy",
          "type": "string"
        },
        {
          "indexed": false,
          "internalType": "string",
          "name": "approvedBy",
          "type": "string"
        }
      ],
      "name": "WinnerDeclared",
      "type": "event"
    },
    {
      "inputs": [],
      "name": "getWinner",
      "outputs": [
        {
          "components": [
            {
              "internalType": "uint256",
              "name": "issueId",
              "type": "uint256"
            },
            {
              "internalType": "uint256",
              "name": "contractorId",
              "type": "uint256"
            },
            {
              "internalType": "uint256",
              "name": "projectId",
              "type": "uint256"
            },
            {
              "internalType": "string",
              "name": "name",
              "type": "string"
            },
            {
              "internalType": "uint256",
              "name": "tenure",
              "type": "uint256"
            },
            {
              "internalType": "uint256",
              "name": "amount",
              "type": "uint256"
            },
            {
              "internalType": "string",
              "name": "location",
              "type": "string"
            },
            {
              "internalType": "string",
              "name": "verifiedBy",
              "type": "string"
            },
            {
              "internalType": "string",
              "name": "approvedBy",
              "type": "string"
            }
          ],
          "internalType": "struct ApprovedContract.Winner",
          "name": "",
          "type": "tuple"
        }
      ],
      "stateMutability": "view",
      "type": "function"
    },
    {
      "inputs": [
        {
          "internalType": "uint256",
          "name": "_issueId",
          "type": "uint256"
        },
        {
          "internalType": "uint256",
          "name": "_contractorId",
          "type": "uint256"
        },
        {
          "internalType": "uint256",
          "name": "_projectId",
          "type": "uint256"
        },
        {
          "internalType": "string",
          "name": "_name",
          "type": "string"
        },
        {
          "internalType": "uint256",
          "name": "_tenure",
          "type": "uint256"
        },
        {
          "internalType": "uint256",
          "name": "_amount",
          "type": "uint256"
        },
        {
          "internalType": "string",
          "name": "_location",
          "type": "string"
        },
        {
          "internalType": "string",
          "name": "_verifiedBy",
          "type": "string"
        },
        {
          "internalType": "string",
          "name": "_approvedBy",
          "type": "string"
        }
      ],
      "name": "setWinner",
      "outputs": [],
      "stateMutability": "nonpayable",
      "type": "function"
    },
    {
      "inputs": [],
      "name": "winner",
      "outputs": [
        {
          "internalType": "uint256",
          "name": "issueId",
          "type": "uint256"
        },
        {
          "internalType": "uint256",
          "name": "contractorId",
          "type": "uint256"
        },
        {
          "internalType": "uint256",
          "name": "projectId",
          "type": "uint256"
        },
        {
          "internalType": "string",
          "name": "name",
          "type": "string"
        },
        {
          "internalType": "uint256",
          "name": "tenure",
          "type": "uint256"
        },
        {
          "internalType": "uint256",
          "name": "amount",
          "type": "uint256"
        },
        {
          "internalType": "string",
          "name": "location",
          "type": "string"
        },
        {
          "internalType": "string",
          "name": "verifiedBy",
          "type": "string"
        },
        {
          "internalType": "string",
          "name": "approvedBy",
          "type": "string"
        }
      ],
      "stateMutability": "view",
      "type": "function"
    },
    {
      "inputs": [],
      "name": "winnerSet",
      "outputs": [
        {
          "internalType": "bool",
          "name": "",
          "type": "bool"
        }
      ],
      "stateMutability": "view",
      "type": "function"
    }
  ],
  "bytecode": "0x60806040526000600960006101000a81548160ff021916908315150217905550348015602a57600080fd5b506110b78061003a6000396000f3fe608060405234801561001057600080fd5b506004361061004c5760003560e01c8063623a1c401461005157806378e73ff81461006d5780638e7ea5b21461008b578063dfbf53ae146100a9575b600080fd5b61006b6004803603810190610066919061093b565b6100cf565b005b61007561025b565b6040516100829190610a90565b60405180910390f35b61009361026e565b6040516100a09190610c13565b60405180910390f35b6100b1610503565b6040516100c699989796959493929190610c8e565b60405180910390f35b600960009054906101000a900460ff161561011f576040517f08c379a000000000000000000000000000000000000000000000000000000000815260040161011690610d83565b60405180910390fd5b6040518061012001604052808a8152602001898152602001888152602001878152602001868152602001858152602001848152602001838152602001828152506000808201518160000155602082015181600101556040820151816002015560608201518160030190816101939190610faf565b506080820151816004015560a0820151816005015560c08201518160060190816101bd9190610faf565b5060e08201518160070190816101d39190610faf565b506101008201518160080190816101ea9190610faf565b509050506001600960006101000a81548160ff0219169083151502179055507fe2ae8d08dc6c210a5b94f113eb69ef8cd2ddb8533b5cb262d875e94076252b5b89898989898989898960405161024899989796959493929190610c8e565b60405180910390a1505050505050505050565b600960009054906101000a900460ff1681565b61027661075f565b6000604051806101200160405290816000820154815260200160018201548152602001600282015481526020016003820180546102b290610dd2565b80601f01602080910402602001604051908101604052809291908181526020018280546102de90610dd2565b801561032b5780601f106103005761010080835404028352916020019161032b565b820191906000526020600020905b81548152906001019060200180831161030e57829003601f168201915b50505050508152602001600482015481526020016005820154815260200160068201805461035890610dd2565b80601f016020809104026020016040519081016040528092919081815260200182805461038490610dd2565b80156103d15780601f106103a6576101008083540402835291602001916103d1565b820191906000526020600020905b8154815290600101906020018083116103b457829003601f168201915b505050505081526020016007820180546103ea90610dd2565b80601f016020809104026020016040519081016040528092919081815260200182805461041690610dd2565b80156104635780601f1061043857610100808354040283529160200191610463565b820191906000526020600020905b81548152906001019060200180831161044657829003601f168201915b5050505050815260200160088201805461047c90610dd2565b80601f01602080910402602001604051908101604052809291908181526020018280546104a890610dd2565b80156104f55780601f106104ca576101008083540402835291602001916104f5565b820191906000526020600020905b8154815290600101906020018083116104d857829003601f168201915b505050505081525050905090565b600080600001549080600101549080600201549080600301805461052690610dd2565b80601f016020809104026020016040519081016040528092919081815260200182805461055290610dd2565b801561059f5780601f106105745761010080835404028352916020019161059f565b820191906000526020600020905b81548152906001019060200180831161058257829003601f168201915b5050505050908060040154908060050154908060060180546105c090610dd2565b80601f01602080910402602001604051908101604052809291908181526020018280546105ec90610dd2565b80156106395780601f1061060e57610100808354040283529160200191610639565b820191906000526020600020905b81548152906001019060200180831161061c57829003601f168201915b50505050509080600701805461064e90610dd2565b80601f016020809104026020016040519081016040528092919081815260200182805461067a90610dd2565b80156106c75780601f1061069c576101008083540402835291602001916106c7565b820191906000526020600020905b8154815290600101906020018083116106aa57829003601f168201915b5050505050908060080180546106dc90610dd2565b80601f016020809104026020016040519081016040528092919081815260200182805461070890610dd2565b80156107555780601f1061072a57610100808354040283529160200191610755565b820191906000526020600020905b81548152906001019060200180831161073857829003601f168201915b5050505050905089565b6040518061012001604052806000815260200160008152602001600081526020016060815260200160008152602001600081526020016060815260200160608152602001606081525090565b6000604051905090565b600080fd5b600080fd5b6000819050919050565b6107d2816107bf565b81146107dd57600080fd5b50565b6000813590506107ef816107c9565b92915050565b600080fd5b600080fd5b6000601f19601f8301169050919050565b7f4e487b7100000000000000000000000000000000000000000000000000000000600052604160045260246000fd5b610848826107ff565b810181811067ffffffffffffffff8211171561086757610866610810565b5b80604052505050565b600061087a6107ab565b9050610886828261083f565b919050565b600067ffffffffffffffff8211156108a6576108a5610810565b5b6108af826107ff565b9050602081019050919050565b82818337600083830152505050565b60006108de6108d98461088b565b610870565b9050828152602081018484840111156108fa576108f96107fa565b5b6109058482856108bc565b509392505050565b600082601f830112610922576109216107f5565b5b81356109328482602086016108cb565b91505092915050565b60008060008060008060008060006101208a8c03121561095e5761095d6107b5565b5b600061096c8c828d016107e0565b995050602061097d8c828d016107e0565b985050604061098e8c828d016107e0565b97505060608a013567ffffffffffffffff8111156109af576109ae6107ba565b5b6109bb8c828d0161090d565b96505060806109cc8c828d016107e0565b95505060a06109dd8c828d016107e0565b94505060c08a013567ffffffffffffffff8111156109fe576109fd6107ba565b5b610a0a8c828d0161090d565b93505060e08a013567ffffffffffffffff811115610a2b57610a2a6107ba565b5b610a378c828d0161090d565b9250506101008a013567ffffffffffffffff811115610a5957610a586107ba565b5b610a658c828d0161090d565b9150509295985092959850929598565b60008115159050919050565b610a8a81610a75565b82525050565b6000602082019050610aa56000830184610a81565b92915050565b610ab4816107bf565b82525050565b600081519050919050565b600082825260208201905092915050565b60005b83811015610af4578082015181840152602081019050610ad9565b60008484015250505050565b6000610b0b82610aba565b610b158185610ac5565b9350610b25818560208601610ad6565b610b2e816107ff565b840191505092915050565b600061012083016000830151610b526000860182610aab565b506020830151610b656020860182610aab565b506040830151610b786040860182610aab565b5060608301518482036060860152610b908282610b00565b9150506080830151610ba56080860182610aab565b5060a0830151610bb860a0860182610aab565b5060c083015184820360c0860152610bd08282610b00565b91505060e083015184820360e0860152610bea8282610b00565b915050610100830151848203610100860152610c068282610b00565b9150508091505092915050565b60006020820190508181036000830152610c2d8184610b39565b905092915050565b610c3e816107bf565b82525050565b600082825260208201905092915050565b6000610c6082610aba565b610c6a8185610c44565b9350610c7a818560208601610ad6565b610c83816107ff565b840191505092915050565b600061012082019050610ca4600083018c610c35565b610cb1602083018b610c35565b610cbe604083018a610c35565b8181036060830152610cd08189610c55565b9050610cdf6080830188610c35565b610cec60a0830187610c35565b81810360c0830152610cfe8186610c55565b905081810360e0830152610d128185610c55565b9050818103610100830152610d278184610c55565b90509a9950505050505050505050565b7f57696e6e657220697320616c7265616479207365742100000000000000000000600082015250565b6000610d6d601683610c44565b9150610d7882610d37565b602082019050919050565b60006020820190508181036000830152610d9c81610d60565b9050919050565b7f4e487b7100000000000000000000000000000000000000000000000000000000600052602260045260246000fd5b60006002820490506001821680610dea57607f821691505b602082108103610dfd57610dfc610da3565b5b50919050565b60008190508160005260206000209050919050565b60006020601f8301049050919050565b600082821b905092915050565b600060088302610e657fffffffffffffffffffffffffffffffffffffffffffffffffffffffffffffffff82610e28565b610e6f8683610e28565b95508019841693508086168417925050509392505050565b6000819050919050565b6000610eac610ea7610ea2846107bf565b610e87565b6107bf565b9050919050565b6000819050919050565b610ec683610e91565b610eda610ed282610eb3565b848454610e35565b825550505050565b600090565b610eef610ee2565b610efa818484610ebd565b505050565b5b81811015610f1e57610f13600082610ee7565b600181019050610f00565b5050565b601f821115610f6357610f3481610e03565b610f3d84610e18565b81016020851015610f4c578190505b610f60610f5885610e18565b830182610eff565b50505b505050565b600082821c905092915050565b6000610f8660001984600802610f68565b1980831691505092915050565b6000610f9f8383610f75565b9150826002028217905092915050565b610fb882610aba565b67ffffffffffffffff811115610fd157610fd0610810565b5b610fdb8254610dd2565b610fe6828285610f22565b600060209050601f8311600181146110195760008415611007578287015190505b6110118582610f93565b865550611079565b601f19841661102786610e03565b60005b8281101561104f5784890151825560018201915060208501945060208101905061102a565b8683101561106c5784890151611068601f891682610f75565b8355505b6001600288020188555050505b50505050505056fea26469706673582212202a534108d7be33a601dae8d4a45f9c23609be70f10d061b7c9b342bb5a6027de64736f6c634300081c0033",
  "linkReferences": {},
  "deployedLinkReferences": {}
}