{
  "_format": "hh-sol-artifact-1",
  "contractName": "Bidding",
  "sourceName": "contracts/Bidding.sol",
  "abi": [
    {
      "anonymous": false,
      "inputs": [
        {
          "indexed": false,
          "internalType": "uint256",
          "name": "bidId",
          "type": "uint256"
        },
        {
          "indexed": false,
          "internalType": "uint256",
          "name": "tenderId",
          "type": "uint256"
        },
        {
          "indexed": false,
          "internalType": "address",
          "name": "contractor",
          "type": "address"
        }
      ],
      "name": "BidApproved",
      "type": "event"
    },
    {
      "anonymous": false,
      "inputs": [
        {
          "indexed": false,
          "internalType": "uint256",
          "name": "bidId",
          "type": "uint256"
        },
        {
          "indexed": false,
          "internalType": "uint256",
          "name": "tenderId",
          "type": "uint256"
        },
        {
          "indexed": false,
          "internalType": "string",
          "name": "contractorMongoId",
          "type": "string"
        }
      ],
      "name": "BidPlaced",
      "type": "event"
    },
    {
      "anonymous": false,
      "inputs": [
        {
          "indexed": false,
          "internalType": "uint256",
          "name": "contractId",
          "type": "uint256"
        },
        {
          "indexed": false,
          "internalType": "uint256",
          "name": "tenderId",
          "type": "uint256"
        },
        {
          "indexed": false,
          "internalType": "address",
          "name": "contractor",
          "type": "address"
        }
      ],
      "name": "ContractCreated",
      "type": "event"
    },
    {
      "inputs": [
        {
          "internalType": "uint256",
          "name": "_tenderId",
          "type": "uint256"
        },
        {
          "internalType": "uint256",
          "name": "_bidId",
          "type": "uint256"
        }
      ],
      "name": "approveBid",
      "outputs": [],
      "stateMutability": "nonpayable",
      "type": "function"
    },
    {
      "inputs": [
        {
          "internalType": "uint256",
          "name": "",
          "type": "uint256"
        }
      ],
      "name": "contracts",
      "outputs": [
        {
          "internalType": "uint256",
          "name": "contractId",
          "type": "uint256"
        },
        {
          "internalType": "uint256",
          "name": "tenderId",
          "type": "uint256"
        },
        {
          "internalType": "uint256",
          "name": "winningBidId",
          "type": "uint256"
        },
        {
          "internalType": "address",
          "name": "contractor",
          "type": "address"
        },
        {
          "internalType": "string",
          "name": "contractorMongoId",
          "type": "string"
        },
        {
          "internalType": "uint256",
          "name": "contractAmount",
          "type": "uint256"
        },
        {
          "internalType": "bool",
          "name": "isCompleted",
          "type": "bool"
        }
      ],
      "stateMutability": "view",
      "type": "function"
    },
    {
      "inputs": [],
      "name": "getAllContracts",
      "outputs": [
        {
          "components": [
            {
              "internalType": "uint256",
              "name": "contractId",
              "type": "uint256"
            },
            {
              "internalType": "uint256",
              "name": "tenderId",
              "type": "uint256"
            },
            {
              "internalType": "uint256",
              "name": "winningBidId",
              "type": "uint256"
            },
            {
              "internalType": "address",
              "name": "contractor",
              "type": "address"
            },
            {
              "internalType": "string",
              "name": "contractorMongoId",
              "type": "string"
            },
            {
              "internalType": "uint256",
              "name": "contractAmount",
              "type": "uint256"
            },
            {
              "internalType": "bool",
              "name": "isCompleted",
              "type": "bool"
            }
          ],
          "internalType": "struct Bidding.Contract[]",
          "name": "",
          "type": "tuple[]"
        }
      ],
      "stateMutability": "view",
      "type": "function"
    },
    {
      "inputs": [
        {
          "internalType": "uint256",
          "name": "_tenderId",
          "type": "uint256"
        }
      ],
      "name": "getBids",
      "outputs": [
        {
          "components": [
            {
              "internalType": "uint256",
              "name": "bidId",
              "type": "uint256"
            },
            {
              "internalType": "uint256",
              "name": "tenderId",
              "type": "uint256"
            },
            {
              "internalType": "address",
              "name": "contractor",
              "type": "address"
            },
            {
              "internalType": "string",
              "name": "contractorMongoId",
              "type": "string"
            },
            {
              "internalType": "uint256",
              "name": "bidAmount",
              "type": "uint256"
            },
            {
              "internalType": "string",
              "name": "proposalDocument",
              "type": "string"
            },
            {
              "internalType": "uint256",
              "name": "experienceYears",
              "type": "uint256"
            },
            {
              "internalType": "uint256",
              "name": "contractorRating",
              "type": "uint256"
            },
            {
              "internalType": "bool",
              "name": "isApproved",
              "type": "bool"
            }
          ],
          "internalType": "struct Bidding.Bid[]",
          "name": "",
          "type": "tuple[]"
        }
      ],
      "stateMutability": "view",
      "type": "function"
    },
    {
      "inputs": [
        {
          "internalType": "uint256",
          "name": "_contractId",
          "type": "uint256"
        }
      ],
      "name": "getContract",
      "outputs": [
        {
          "components": [
            {
              "internalType": "uint256",
              "name": "contractId",
              "type": "uint256"
            },
            {
              "internalType": "uint256",
              "name": "tenderId",
              "type": "uint256"
            },
            {
              "internalType": "uint256",
              "name": "winningBidId",
              "type": "uint256"
            },
            {
              "internalType": "address",
              "name": "contractor",
              "type": "address"
            },
            {
              "internalType": "string",
              "name": "contractorMongoId",
              "type": "string"
            },
            {
              "internalType": "uint256",
              "name": "contractAmount",
              "type": "uint256"
            },
            {
              "internalType": "bool",
              "name": "isCompleted",
              "type": "bool"
            }
          ],
          "internalType": "struct Bidding.Contract",
          "name": "",
          "type": "tuple"
        }
      ],
      "stateMutability": "view",
      "type": "function"
    },
    {
      "inputs": [
        {
          "internalType": "string",
          "name": "_contractorMongoId",
          "type": "string"
        }
      ],
      "name": "getContractsByContractor",
      "outputs": [
        {
          "components": [
            {
              "internalType": "uint256",
              "name": "contractId",
              "type": "uint256"
            },
            {
              "internalType": "uint256",
              "name": "tenderId",
              "type": "uint256"
            },
            {
              "internalType": "uint256",
              "name": "winningBidId",
              "type": "uint256"
            },
            {
              "internalType": "address",
              "name": "contractor",
              "type": "address"
            },
            {
              "internalType": "string",
              "name": "contractorMongoId",
              "type": "string"
            },
            {
              "internalType": "uint256",
              "name": "contractAmount",
              "type": "uint256"
            },
            {
              "internalType": "bool",
              "name": "isCompleted",
              "type": "bool"
            }
          ],
          "internalType": "struct Bidding.Contract[]",
          "name": "",
          "type": "tuple[]"
        }
      ],
      "stateMutability": "view",
      "type": "function"
    },
    {
      "inputs": [
        {
          "internalType": "uint256",
          "name": "_tenderId",
          "type": "uint256"
        },
        {
          "internalType": "string",
          "name": "_contractorMongoId",
          "type": "string"
        },
        {
          "internalType": "uint256",
          "name": "_bidAmount",
          "type": "uint256"
        },
        {
          "internalType": "string",
          "name": "_proposalDocument",
          "type": "string"
        },
        {
          "internalType": "uint256",
          "name": "_experienceYears",
          "type": "uint256"
        },
        {
          "internalType": "uint256",
          "name": "_contractorRating",
          "type": "uint256"
        }
      ],
      "name": "placeBid",
      "outputs": [],
      "stateMutability": "nonpayable",
      "type": "function"
    },
    {
      "inputs": [
        {
          "internalType": "uint256",
          "name": "",
          "type": "uint256"
        },
        {
          "internalType": "uint256",
          "name": "",
          "type": "uint256"
        }
      ],
      "name": "tenderBids",
      "outputs": [
        {
          "internalType": "uint256",
          "name": "bidId",
          "type": "uint256"
        },
        {
          "internalType": "uint256",
          "name": "tenderId",
          "type": "uint256"
        },
        {
          "internalType": "address",
          "name": "contractor",
          "type": "address"
        },
        {
          "internalType": "string",
          "name": "contractorMongoId",
          "type": "string"
        },
        {
          "internalType": "uint256",
          "name": "bidAmount",
          "type": "uint256"
        },
        {
          "internalType": "string",
          "name": "proposalDocument",
          "type": "string"
        },
        {
          "internalType": "uint256",
          "name": "experienceYears",
          "type": "uint256"
        },
        {
          "internalType": "uint256",
          "name": "contractorRating",
          "type": "uint256"
        },
        {
          "internalType": "bool",
          "name": "isApproved",
          "type": "bool"
        }
      ],
      "stateMutability": "view",
      "type": "function"
    }
  ],
  "bytecode": "0x6080604052348015600f57600080fd5b5061224e8061001f6000396000f3fe608060405234801561001057600080fd5b50600436106100885760003560e01c80634ef417b11161005b5780634ef417b11461012d5780636ebc8c861461014957806373bd741c14610179578063c23c252a146101a957610088565b8063131d9a271461008d5780631766b13e146100bd57806318d3ce96146100d9578063474da79a146100f7575b600080fd5b6100a760048036038101906100a291906113a5565b6101e1565b6040516100b4919061165b565b60405180910390f35b6100d760048036038101906100d291906117b2565b61041b565b005b6100e16105d6565b6040516100ee91906119d5565b60405180910390f35b610111600480360381019061010c91906113a5565b610760565b6040516101249796959493929190611a6e565b60405180910390f35b61014760048036038101906101429190611ae4565b610857565b005b610163600480360381019061015e91906113a5565b610ce1565b6040516101709190611bc0565b60405180910390f35b610193600480360381019061018e9190611be2565b610e39565b6040516101a091906119d5565b60405180910390f35b6101c360048036038101906101be9190611ae4565b61115e565b6040516101d899989796959493929190611c2b565b60405180910390f35b606060026000838152602001908152602001600020805480602002602001604051908101604052809291908181526020016000905b8282101561041057838290600052602060002090600902016040518061012001604052908160008201548152602001600182015481526020016002820160009054906101000a900473ffffffffffffffffffffffffffffffffffffffff1673ffffffffffffffffffffffffffffffffffffffff1673ffffffffffffffffffffffffffffffffffffffff1681526020016003820180546102b490611cf5565b80601f01602080910402602001604051908101604052809291908181526020018280546102e090611cf5565b801561032d5780601f106103025761010080835404028352916020019161032d565b820191906000526020600020905b81548152906001019060200180831161031057829003601f168201915b505050505081526020016004820154815260200160058201805461035090611cf5565b80601f016020809104026020016040519081016040528092919081815260200182805461037c90611cf5565b80156103c95780601f1061039e576101008083540402835291602001916103c9565b820191906000526020600020905b8154815290600101906020018083116103ac57829003601f168201915b5050505050815260200160068201548152602001600782015481526020016008820160009054906101000a900460ff16151515158152505081526020019060010190610216565b505050509050919050565b60008081548092919061042d90611d55565b91905055506002600087815260200190815260200160002060405180610120016040528060005481526020018881526020013373ffffffffffffffffffffffffffffffffffffffff168152602001878152602001868152602001858152602001848152602001838152602001600015158152509080600181540180825580915050600190039060005260206000209060090201600090919091909150600082015181600001556020820151816001015560408201518160020160006101000a81548173ffffffffffffffffffffffffffffffffffffffff021916908373ffffffffffffffffffffffffffffffffffffffff16021790555060608201518160030190816105399190611f49565b506080820151816004015560a08201518160050190816105599190611f49565b5060c0820151816006015560e082015181600701556101008201518160080160006101000a81548160ff02191690831515021790555050507fc7f08f58a2f519f29756f46061251a750f3ad3b9bdfec83363e43fa1f54292a960005487876040516105c69392919061201b565b60405180910390a1505050505050565b60606004805480602002602001604051908101604052809291908181526020016000905b8282101561075757838290600052602060002090600702016040518060e00160405290816000820154815260200160018201548152602001600282015481526020016003820160009054906101000a900473ffffffffffffffffffffffffffffffffffffffff1673ffffffffffffffffffffffffffffffffffffffff1673ffffffffffffffffffffffffffffffffffffffff1681526020016004820180546106a190611cf5565b80601f01602080910402602001604051908101604052809291908181526020018280546106cd90611cf5565b801561071a5780601f106106ef5761010080835404028352916020019161071a565b820191906000526020600020905b8154815290600101906020018083116106fd57829003601f168201915b50505050508152602001600582015481526020016006820160009054906101000a900460ff161515151581525050815260200190600101906105fa565b50505050905090565b60036020528060005260406000206000915090508060000154908060010154908060020154908060030160009054906101000a900473ffffffffffffffffffffffffffffffffffffffff16908060040180546107bb90611cf5565b80601f01602080910402602001604051908101604052809291908181526020018280546107e790611cf5565b80156108345780601f1061080957610100808354040283529160200191610834565b820191906000526020600020905b81548152906001019060200180831161081757829003601f168201915b5050505050908060050154908060060160009054906101000a900460ff16905087565b6000600260008481526020019081526020016000209050600060606000806000905060005b8580549050811015610a5e578686828154811061089c5761089b612059565b5b90600052602060002090600902016000015403610a515760018682815481106108c8576108c7612059565b5b906000526020600020906009020160080160006101000a81548160ff02191690831515021790555085818154811061090357610902612059565b5b906000526020600020906009020160020160009054906101000a900473ffffffffffffffffffffffffffffffffffffffff16945085818154811061094a57610949612059565b5b9060005260206000209060090201600301805461096690611cf5565b80601f016020809104026020016040519081016040528092919081815260200182805461099290611cf5565b80156109df5780601f106109b4576101008083540402835291602001916109df565b820191906000526020600020905b8154815290600101906020018083116109c257829003601f168201915b505050505093508581815481106109f9576109f8612059565b5b9060005260206000209060090201600401549250600191507f017acf83e4f0efeb08ffd6ba49cc57039e5ce14d903a1e76ac2a4f93e29eb52a878987604051610a4493929190612088565b60405180910390a1610a5e565b808060010191505061087c565b5080610a9f576040517f08c379a0000000000000000000000000000000000000000000000000000000008152600401610a969061210b565b60405180910390fd5b60016000815480929190610ab290611d55565b919050555060006040518060e0016040528060015481526020018981526020018881526020018673ffffffffffffffffffffffffffffffffffffffff1681526020018581526020018481526020016000151581525090508060036000600154815260200190815260200160002060008201518160000155602082015181600101556040820151816002015560608201518160030160006101000a81548173ffffffffffffffffffffffffffffffffffffffff021916908373ffffffffffffffffffffffffffffffffffffffff1602179055506080820151816004019081610b999190611f49565b5060a0820151816005015560c08201518160060160006101000a81548160ff021916908315150217905550905050600481908060018154018082558091505060019003906000526020600020906007020160009091909190915060008201518160000155602082015181600101556040820151816002015560608201518160030160006101000a81548173ffffffffffffffffffffffffffffffffffffffff021916908373ffffffffffffffffffffffffffffffffffffffff1602179055506080820151816004019081610c6d9190611f49565b5060a0820151816005015560c08201518160060160006101000a81548160ff02191690831515021790555050507ff5f990baeb36c54410688d81d354cda0452f0611033534842e880d2a7ee3f01f6001548987604051610ccf93929190612088565b60405180910390a15050505050505050565b610ce9611306565b600360008381526020019081526020016000206040518060e00160405290816000820154815260200160018201548152602001600282015481526020016003820160009054906101000a900473ffffffffffffffffffffffffffffffffffffffff1673ffffffffffffffffffffffffffffffffffffffff1673ffffffffffffffffffffffffffffffffffffffff168152602001600482018054610d8b90611cf5565b80601f0160208091040260200160405190810160405280929190818152602001828054610db790611cf5565b8015610e045780601f10610dd957610100808354040283529160200191610e04565b820191906000526020600020905b815481529060010190602001808311610de757829003601f168201915b50505050508152602001600582015481526020016006820160009054906101000a900460ff1615151515815250509050919050565b60606000805b600480549050811015610edf5783604051602001610e5d9190612167565b6040516020818303038152906040528051906020012060048281548110610e8757610e86612059565b5b9060005260206000209060070201600401604051602001610ea89190612201565b6040516020818303038152906040528051906020012003610ed2578180610ece90611d55565b9250505b8080600101915050610e3f565b5060008167ffffffffffffffff811115610efc57610efb611687565b5b604051908082528060200260200182016040528015610f3557816020015b610f22611306565b815260200190600190039081610f1a5790505b5090506000805b6004805490508110156111525785604051602001610f5a9190612167565b6040516020818303038152906040528051906020012060048281548110610f8457610f83612059565b5b9060005260206000209060070201600401604051602001610fa59190612201565b60405160208183030381529060405280519060200120036111455760048181548110610fd457610fd3612059565b5b90600052602060002090600702016040518060e00160405290816000820154815260200160018201548152602001600282015481526020016003820160009054906101000a900473ffffffffffffffffffffffffffffffffffffffff1673ffffffffffffffffffffffffffffffffffffffff1673ffffffffffffffffffffffffffffffffffffffff16815260200160048201805461107190611cf5565b80601f016020809104026020016040519081016040528092919081815260200182805461109d90611cf5565b80156110ea5780601f106110bf576101008083540402835291602001916110ea565b820191906000526020600020905b8154815290600101906020018083116110cd57829003601f168201915b50505050508152602001600582015481526020016006820160009054906101000a900460ff16151515158152505083838151811061112b5761112a612059565b5b6020026020010181905250818061114190611d55565b9250505b8080600101915050610f3c565b50819350505050919050565b6002602052816000526040600020818154811061117a57600080fd5b9060005260206000209060090201600091509150508060000154908060010154908060020160009054906101000a900473ffffffffffffffffffffffffffffffffffffffff16908060030180546111d090611cf5565b80601f01602080910402602001604051908101604052809291908181526020018280546111fc90611cf5565b80156112495780601f1061121e57610100808354040283529160200191611249565b820191906000526020600020905b81548152906001019060200180831161122c57829003601f168201915b50505050509080600401549080600501805461126490611cf5565b80601f016020809104026020016040519081016040528092919081815260200182805461129090611cf5565b80156112dd5780601f106112b2576101008083540402835291602001916112dd565b820191906000526020600020905b8154815290600101906020018083116112c057829003601f168201915b5050505050908060060154908060070154908060080160009054906101000a900460ff16905089565b6040518060e00160405280600081526020016000815260200160008152602001600073ffffffffffffffffffffffffffffffffffffffff16815260200160608152602001600081526020016000151581525090565b6000604051905090565b600080fd5b600080fd5b6000819050919050565b6113828161136f565b811461138d57600080fd5b50565b60008135905061139f81611379565b92915050565b6000602082840312156113bb576113ba611365565b5b60006113c984828501611390565b91505092915050565b600081519050919050565b600082825260208201905092915050565b6000819050602082019050919050565b6114078161136f565b82525050565b600073ffffffffffffffffffffffffffffffffffffffff82169050919050565b60006114388261140d565b9050919050565b6114488161142d565b82525050565b600081519050919050565b600082825260208201905092915050565b60005b8381101561148857808201518184015260208101905061146d565b60008484015250505050565b6000601f19601f8301169050919050565b60006114b08261144e565b6114ba8185611459565b93506114ca81856020860161146a565b6114d381611494565b840191505092915050565b60008115159050919050565b6114f3816114de565b82525050565b60006101208301600083015161151260008601826113fe565b50602083015161152560208601826113fe565b506040830151611538604086018261143f565b506060830151848203606086015261155082826114a5565b915050608083015161156560808601826113fe565b5060a083015184820360a086015261157d82826114a5565b91505060c083015161159260c08601826113fe565b5060e08301516115a560e08601826113fe565b506101008301516115ba6101008601826114ea565b508091505092915050565b60006115d183836114f9565b905092915050565b6000602082019050919050565b60006115f1826113d2565b6115fb81856113dd565b93508360208202850161160d856113ee565b8060005b85811015611649578484038952815161162a85826115c5565b9450611635836115d9565b925060208a01995050600181019050611611565b50829750879550505050505092915050565b6000602082019050818103600083015261167581846115e6565b905092915050565b600080fd5b600080fd5b7f4e487b7100000000000000000000000000000000000000000000000000000000600052604160045260246000fd5b6116bf82611494565b810181811067ffffffffffffffff821117156116de576116dd611687565b5b80604052505050565b60006116f161135b565b90506116fd82826116b6565b919050565b600067ffffffffffffffff82111561171d5761171c611687565b5b61172682611494565b9050602081019050919050565b82818337600083830152505050565b600061175561175084611702565b6116e7565b90508281526020810184848401111561177157611770611682565b5b61177c848285611733565b509392505050565b600082601f8301126117995761179861167d565b5b81356117a9848260208601611742565b91505092915050565b60008060008060008060c087890312156117cf576117ce611365565b5b60006117dd89828a01611390565b965050602087013567ffffffffffffffff8111156117fe576117fd61136a565b5b61180a89828a01611784565b955050604061181b89828a01611390565b945050606087013567ffffffffffffffff81111561183c5761183b61136a565b5b61184889828a01611784565b935050608061185989828a01611390565b92505060a061186a89828a01611390565b9150509295509295509295565b600081519050919050565b600082825260208201905092915050565b6000819050602082019050919050565b600060e0830160008301516118bb60008601826113fe565b5060208301516118ce60208601826113fe565b5060408301516118e160408601826113fe565b5060608301516118f4606086018261143f565b506080830151848203608086015261190c82826114a5565b91505060a083015161192160a08601826113fe565b5060c083015161193460c08601826114ea565b508091505092915050565b600061194b83836118a3565b905092915050565b6000602082019050919050565b600061196b82611877565b6119758185611882565b93508360208202850161198785611893565b8060005b858110156119c357848403895281516119a4858261193f565b94506119af83611953565b925060208a0199505060018101905061198b565b50829750879550505050505092915050565b600060208201905081810360008301526119ef8184611960565b905092915050565b611a008161136f565b82525050565b611a0f8161142d565b82525050565b600082825260208201905092915050565b6000611a318261144e565b611a3b8185611a15565b9350611a4b81856020860161146a565b611a5481611494565b840191505092915050565b611a68816114de565b82525050565b600060e082019050611a83600083018a6119f7565b611a9060208301896119f7565b611a9d60408301886119f7565b611aaa6060830187611a06565b8181036080830152611abc8186611a26565b9050611acb60a08301856119f7565b611ad860c0830184611a5f565b98975050505050505050565b60008060408385031215611afb57611afa611365565b5b6000611b0985828601611390565b9250506020611b1a85828601611390565b9150509250929050565b600060e083016000830151611b3c60008601826113fe565b506020830151611b4f60208601826113fe565b506040830151611b6260408601826113fe565b506060830151611b75606086018261143f565b5060808301518482036080860152611b8d82826114a5565b91505060a0830151611ba260a08601826113fe565b5060c0830151611bb560c08601826114ea565b508091505092915050565b60006020820190508181036000830152611bda8184611b24565b905092915050565b600060208284031215611bf857611bf7611365565b5b600082013567ffffffffffffffff811115611c1657611c1561136a565b5b611c2284828501611784565b91505092915050565b600061012082019050611c41600083018c6119f7565b611c4e602083018b6119f7565b611c5b604083018a611a06565b8181036060830152611c6d8189611a26565b9050611c7c60808301886119f7565b81810360a0830152611c8e8187611a26565b9050611c9d60c08301866119f7565b611caa60e08301856119f7565b611cb8610100830184611a5f565b9a9950505050505050505050565b7f4e487b7100000000000000000000000000000000000000000000000000000000600052602260045260246000fd5b60006002820490506001821680611d0d57607f821691505b602082108103611d2057611d1f611cc6565b5b50919050565b7f4e487b7100000000000000000000000000000000000000000000000000000000600052601160045260246000fd5b6000611d608261136f565b91507fffffffffffffffffffffffffffffffffffffffffffffffffffffffffffffffff8203611d9257611d91611d26565b5b600182019050919050565b60008190508160005260206000209050919050565b60006020601f8301049050919050565b600082821b905092915050565b600060088302611dff7fffffffffffffffffffffffffffffffffffffffffffffffffffffffffffffffff82611dc2565b611e098683611dc2565b95508019841693508086168417925050509392505050565b6000819050919050565b6000611e46611e41611e3c8461136f565b611e21565b61136f565b9050919050565b6000819050919050565b611e6083611e2b565b611e74611e6c82611e4d565b848454611dcf565b825550505050565b600090565b611e89611e7c565b611e94818484611e57565b505050565b5b81811015611eb857611ead600082611e81565b600181019050611e9a565b5050565b601f821115611efd57611ece81611d9d565b611ed784611db2565b81016020851015611ee6578190505b611efa611ef285611db2565b830182611e99565b50505b505050565b600082821c905092915050565b6000611f2060001984600802611f02565b1980831691505092915050565b6000611f398383611f0f565b9150826002028217905092915050565b611f528261144e565b67ffffffffffffffff811115611f6b57611f6a611687565b5b611f758254611cf5565b611f80828285611ebc565b600060209050601f831160018114611fb35760008415611fa1578287015190505b611fab8582611f2d565b865550612013565b601f198416611fc186611d9d565b60005b82811015611fe957848901518255600182019150602085019450602081019050611fc4565b868310156120065784890151612002601f891682611f0f565b8355505b6001600288020188555050505b505050505050565b600060608201905061203060008301866119f7565b61203d60208301856119f7565b818103604083015261204f8184611a26565b9050949350505050565b7f4e487b7100000000000000000000000000000000000000000000000000000000600052603260045260246000fd5b600060608201905061209d60008301866119f7565b6120aa60208301856119f7565b6120b76040830184611a06565b949350505050565b7f426964206e6f7420666f756e6400000000000000000000000000000000000000600082015250565b60006120f5600d83611a15565b9150612100826120bf565b602082019050919050565b60006020820190508181036000830152612124816120e8565b9050919050565b600081905092915050565b60006121418261144e565b61214b818561212b565b935061215b81856020860161146a565b80840191505092915050565b60006121738284612136565b915081905092915050565b6000815461218b81611cf5565b612195818661212b565b945060018216600081146121b057600181146121c5576121f8565b60ff19831686528115158202860193506121f8565b6121ce85611d9d565b60005b838110156121f0578154818901526001820191506020810190506121d1565b838801955050505b50505092915050565b600061220d828461217e565b91508190509291505056fea26469706673582212202a1e0be0407f393d862c2761f2c4316f4c297e68967ff4da07fabb21428fad5664736f6c634300081c0033",
  "linkReferences": {},
  "deployedLinkReferences": {}
}