{
  "_format": "hh-sol-artifact-1",
  "contractName": "GovContract",
  "sourceName": "contracts/GovContract.sol",
  "abi": [
    {
      "anonymous": false,
      "inputs": [
        {
          "indexed": false,
          "internalType": "uint256",
          "name": "bidId",
          "type": "uint256"
        },
        {
          "indexed": false,
          "internalType": "uint256",
          "name": "tenderId",
          "type": "uint256"
        },
        {
          "indexed": false,
          "internalType": "string",
          "name": "contractorMongoId",
          "type": "string"
        }
      ],
      "name": "BidPlaced",
      "type": "event"
    },
    {
      "anonymous": false,
      "inputs": [
        {
          "indexed": false,
          "internalType": "uint256",
          "name": "contractId",
          "type": "uint256"
        },
        {
          "indexed": false,
          "internalType": "uint256",
          "name": "tenderId",
          "type": "uint256"
        },
        {
          "indexed": false,
          "internalType": "address",
          "name": "contractor",
          "type": "address"
        }
      ],
      "name": "ContractCreated",
      "type": "event"
    },
    {
      "inputs": [
        {
          "internalType": "uint256",
          "name": "_tenderId",
          "type": "uint256"
        },
        {
          "internalType": "uint256",
          "name": "_bidId",
          "type": "uint256"
        }
      ],
      "name": "approveWinningBid",
      "outputs": [],
      "stateMutability": "nonpayable",
      "type": "function"
    },
    {
      "inputs": [
        {
          "internalType": "uint256",
          "name": "",
          "type": "uint256"
        }
      ],
      "name": "contracts",
      "outputs": [
        {
          "internalType": "uint256",
          "name": "contractId",
          "type": "uint256"
        },
        {
          "internalType": "uint256",
          "name": "tenderId",
          "type": "uint256"
        },
        {
          "internalType": "uint256",
          "name": "winningBidId",
          "type": "uint256"
        },
        {
          "internalType": "address",
          "name": "contractor",
          "type": "address"
        },
        {
          "internalType": "string",
          "name": "contractorMongoId",
          "type": "string"
        },
        {
          "internalType": "uint256",
          "name": "contractAmount",
          "type": "uint256"
        },
        {
          "internalType": "bool",
          "name": "isCompleted",
          "type": "bool"
        }
      ],
      "stateMutability": "view",
      "type": "function"
    },
    {
      "inputs": [
        {
          "internalType": "uint256",
          "name": "_tenderId",
          "type": "uint256"
        }
      ],
      "name": "getBids",
      "outputs": [
        {
          "components": [
            {
              "internalType": "uint256",
              "name": "bidId",
              "type": "uint256"
            },
            {
              "internalType": "uint256",
              "name": "tenderId",
              "type": "uint256"
            },
            {
              "internalType": "address",
              "name": "contractor",
              "type": "address"
            },
            {
              "internalType": "string",
              "name": "contractorMongoId",
              "type": "string"
            },
            {
              "internalType": "uint256",
              "name": "bidAmount",
              "type": "uint256"
            },
            {
              "internalType": "string",
              "name": "proposalDocument",
              "type": "string"
            },
            {
              "internalType": "uint256",
              "name": "experienceYears",
              "type": "uint256"
            },
            {
              "internalType": "uint256",
              "name": "contractorRating",
              "type": "uint256"
            },
            {
              "internalType": "bool",
              "name": "isApproved",
              "type": "bool"
            }
          ],
          "internalType": "struct Bidding.Bid[]",
          "name": "",
          "type": "tuple[]"
        }
      ],
      "stateMutability": "view",
      "type": "function"
    },
    {
      "inputs": [
        {
          "internalType": "uint256",
          "name": "_contractId",
          "type": "uint256"
        }
      ],
      "name": "getContract",
      "outputs": [
        {
          "components": [
            {
              "internalType": "uint256",
              "name": "contractId",
              "type": "uint256"
            },
            {
              "internalType": "uint256",
              "name": "tenderId",
              "type": "uint256"
            },
            {
              "internalType": "uint256",
              "name": "winningBidId",
              "type": "uint256"
            },
            {
              "internalType": "address",
              "name": "contractor",
              "type": "address"
            },
            {
              "internalType": "string",
              "name": "contractorMongoId",
              "type": "string"
            },
            {
              "internalType": "uint256",
              "name": "contractAmount",
              "type": "uint256"
            },
            {
              "internalType": "bool",
              "name": "isCompleted",
              "type": "bool"
            }
          ],
          "internalType": "struct GovContract.Contract",
          "name": "",
          "type": "tuple"
        }
      ],
      "stateMutability": "view",
      "type": "function"
    },
    {
      "inputs": [
        {
          "internalType": "uint256",
          "name": "_tenderId",
          "type": "uint256"
        },
        {
          "internalType": "string",
          "name": "_contractorMongoId",
          "type": "string"
        },
        {
          "internalType": "uint256",
          "name": "_bidAmount",
          "type": "uint256"
        },
        {
          "internalType": "string",
          "name": "_proposalDocument",
          "type": "string"
        },
        {
          "internalType": "uint256",
          "name": "_experienceYears",
          "type": "uint256"
        },
        {
          "internalType": "uint256",
          "name": "_contractorRating",
          "type": "uint256"
        }
      ],
      "name": "placeBid",
      "outputs": [],
      "stateMutability": "nonpayable",
      "type": "function"
    },
    {
      "inputs": [
        {
          "internalType": "uint256",
          "name": "",
          "type": "uint256"
        },
        {
          "internalType": "uint256",
          "name": "",
          "type": "uint256"
        }
      ],
      "name": "tenderBids",
      "outputs": [
        {
          "internalType": "uint256",
          "name": "bidId",
          "type": "uint256"
        },
        {
          "internalType": "uint256",
          "name": "tenderId",
          "type": "uint256"
        },
        {
          "internalType": "address",
          "name": "contractor",
          "type": "address"
        },
        {
          "internalType": "string",
          "name": "contractorMongoId",
          "type": "string"
        },
        {
          "internalType": "uint256",
          "name": "bidAmount",
          "type": "uint256"
        },
        {
          "internalType": "string",
          "name": "proposalDocument",
          "type": "string"
        },
        {
          "internalType": "uint256",
          "name": "experienceYears",
          "type": "uint256"
        },
        {
          "internalType": "uint256",
          "name": "contractorRating",
          "type": "uint256"
        },
        {
          "internalType": "bool",
          "name": "isApproved",
          "type": "bool"
        }
      ],
      "stateMutability": "view",
      "type": "function"
    }
  ],
  "bytecode": "0x6080604052348015600f57600080fd5b506119618061001f6000396000f3fe608060405234801561001057600080fd5b50600436106100625760003560e01c8063131d9a27146100675780631766b13e14610097578063474da79a146100b35780636ebc8c86146100e9578063c23c252a14610119578063caec257a14610151575b600080fd5b610081600480360381019061007c9190610d6e565b61016d565b60405161008e9190611024565b60405180910390f35b6100b160048036038101906100ac919061117b565b6103a7565b005b6100cd60048036038101906100c89190610d6e565b610562565b6040516100e097969594939291906112b7565b60405180910390f35b61010360048036038101906100fe9190610d6e565b610659565b60405161011091906113c9565b60405180910390f35b610133600480360381019061012e91906113eb565b6107b1565b6040516101489998979695949392919061142b565b60405180910390f35b61016b600480360381019061016691906113eb565b610959565b005b606060016000838152602001908152602001600020805480602002602001604051908101604052809291908181526020016000905b8282101561039c57838290600052602060002090600902016040518061012001604052908160008201548152602001600182015481526020016002820160009054906101000a900473ffffffffffffffffffffffffffffffffffffffff1673ffffffffffffffffffffffffffffffffffffffff1673ffffffffffffffffffffffffffffffffffffffff168152602001600382018054610240906114f5565b80601f016020809104026020016040519081016040528092919081815260200182805461026c906114f5565b80156102b95780601f1061028e576101008083540402835291602001916102b9565b820191906000526020600020905b81548152906001019060200180831161029c57829003601f168201915b50505050508152602001600482015481526020016005820180546102dc906114f5565b80601f0160208091040260200160405190810160405280929190818152602001828054610308906114f5565b80156103555780601f1061032a57610100808354040283529160200191610355565b820191906000526020600020905b81548152906001019060200180831161033857829003601f168201915b5050505050815260200160068201548152602001600782015481526020016008820160009054906101000a900460ff161515151581525050815260200190600101906101a2565b505050509050919050565b6000808154809291906103b990611555565b91905055506001600087815260200190815260200160002060405180610120016040528060005481526020018881526020013373ffffffffffffffffffffffffffffffffffffffff168152602001878152602001868152602001858152602001848152602001838152602001600015158152509080600181540180825580915050600190039060005260206000209060090201600090919091909150600082015181600001556020820151816001015560408201518160020160006101000a81548173ffffffffffffffffffffffffffffffffffffffff021916908373ffffffffffffffffffffffffffffffffffffffff16021790555060608201518160030190816104c59190611749565b506080820151816004015560a08201518160050190816104e59190611749565b5060c0820151816006015560e082015181600701556101008201518160080160006101000a81548160ff02191690831515021790555050507fc7f08f58a2f519f29756f46061251a750f3ad3b9bdfec83363e43fa1f54292a960005487876040516105529392919061181b565b60405180910390a1505050505050565b60036020528060005260406000206000915090508060000154908060010154908060020154908060030160009054906101000a900473ffffffffffffffffffffffffffffffffffffffff16908060040180546105bd906114f5565b80601f01602080910402602001604051908101604052809291908181526020018280546105e9906114f5565b80156106365780601f1061060b57610100808354040283529160200191610636565b820191906000526020600020905b81548152906001019060200180831161061957829003601f168201915b5050505050908060050154908060060160009054906101000a900460ff16905087565b610661610ccf565b600360008381526020019081526020016000206040518060e00160405290816000820154815260200160018201548152602001600282015481526020016003820160009054906101000a900473ffffffffffffffffffffffffffffffffffffffff1673ffffffffffffffffffffffffffffffffffffffff1673ffffffffffffffffffffffffffffffffffffffff168152602001600482018054610703906114f5565b80601f016020809104026020016040519081016040528092919081815260200182805461072f906114f5565b801561077c5780601f106107515761010080835404028352916020019161077c565b820191906000526020600020905b81548152906001019060200180831161075f57829003601f168201915b50505050508152602001600582015481526020016006820160009054906101000a900460ff1615151515815250509050919050565b600160205281600052604060002081815481106107cd57600080fd5b9060005260206000209060090201600091509150508060000154908060010154908060020160009054906101000a900473ffffffffffffffffffffffffffffffffffffffff1690806003018054610823906114f5565b80601f016020809104026020016040519081016040528092919081815260200182805461084f906114f5565b801561089c5780601f106108715761010080835404028352916020019161089c565b820191906000526020600020905b81548152906001019060200180831161087f57829003601f168201915b5050505050908060040154908060050180546108b7906114f5565b80601f01602080910402602001604051908101604052809291908181526020018280546108e3906114f5565b80156109305780601f1061090557610100808354040283529160200191610930565b820191906000526020600020905b81548152906001019060200180831161091357829003601f168201915b5050505050908060060154908060070154908060080160009054906101000a900460ff16905089565b6000600160008481526020019081526020016000209050600060606000806000905060005b8580549050811015610b25578686828154811061099e5761099d611859565b5b90600052602060002090600902016000015403610b185760018682815481106109ca576109c9611859565b5b906000526020600020906009020160080160006101000a81548160ff021916908315150217905550858181548110610a0557610a04611859565b5b906000526020600020906009020160020160009054906101000a900473ffffffffffffffffffffffffffffffffffffffff169450858181548110610a4c57610a4b611859565b5b90600052602060002090600902016003018054610a68906114f5565b80601f0160208091040260200160405190810160405280929190818152602001828054610a94906114f5565b8015610ae15780601f10610ab657610100808354040283529160200191610ae1565b820191906000526020600020905b815481529060010190602001808311610ac457829003601f168201915b50505050509350858181548110610afb57610afa611859565b5b906000526020600020906009020160040154925060019150610b25565b808060010191505061097e565b5080610b66576040517f08c379a0000000000000000000000000000000000000000000000000000000008152600401610b5d906118d4565b60405180910390fd5b60026000815480929190610b7990611555565b91905055506040518060e0016040528060025481526020018881526020018781526020018573ffffffffffffffffffffffffffffffffffffffff1681526020018481526020018381526020016000151581525060036000600254815260200190815260200160002060008201518160000155602082015181600101556040820151816002015560608201518160030160006101000a81548173ffffffffffffffffffffffffffffffffffffffff021916908373ffffffffffffffffffffffffffffffffffffffff1602179055506080820151816004019081610c5b9190611749565b5060a0820151816005015560c08201518160060160006101000a81548160ff0219169083151502179055509050507ff5f990baeb36c54410688d81d354cda0452f0611033534842e880d2a7ee3f01f6002548886604051610cbe939291906118f4565b60405180910390a150505050505050565b6040518060e00160405280600081526020016000815260200160008152602001600073ffffffffffffffffffffffffffffffffffffffff16815260200160608152602001600081526020016000151581525090565b6000604051905090565b600080fd5b600080fd5b6000819050919050565b610d4b81610d38565b8114610d5657600080fd5b50565b600081359050610d6881610d42565b92915050565b600060208284031215610d8457610d83610d2e565b5b6000610d9284828501610d59565b91505092915050565b600081519050919050565b600082825260208201905092915050565b6000819050602082019050919050565b610dd081610d38565b82525050565b600073ffffffffffffffffffffffffffffffffffffffff82169050919050565b6000610e0182610dd6565b9050919050565b610e1181610df6565b82525050565b600081519050919050565b600082825260208201905092915050565b60005b83811015610e51578082015181840152602081019050610e36565b60008484015250505050565b6000601f19601f8301169050919050565b6000610e7982610e17565b610e838185610e22565b9350610e93818560208601610e33565b610e9c81610e5d565b840191505092915050565b60008115159050919050565b610ebc81610ea7565b82525050565b600061012083016000830151610edb6000860182610dc7565b506020830151610eee6020860182610dc7565b506040830151610f016040860182610e08565b5060608301518482036060860152610f198282610e6e565b9150506080830151610f2e6080860182610dc7565b5060a083015184820360a0860152610f468282610e6e565b91505060c0830151610f5b60c0860182610dc7565b5060e0830151610f6e60e0860182610dc7565b50610100830151610f83610100860182610eb3565b508091505092915050565b6000610f9a8383610ec2565b905092915050565b6000602082019050919050565b6000610fba82610d9b565b610fc48185610da6565b935083602082028501610fd685610db7565b8060005b858110156110125784840389528151610ff38582610f8e565b9450610ffe83610fa2565b925060208a01995050600181019050610fda565b50829750879550505050505092915050565b6000602082019050818103600083015261103e8184610faf565b905092915050565b600080fd5b600080fd5b7f4e487b7100000000000000000000000000000000000000000000000000000000600052604160045260246000fd5b61108882610e5d565b810181811067ffffffffffffffff821117156110a7576110a6611050565b5b80604052505050565b60006110ba610d24565b90506110c6828261107f565b919050565b600067ffffffffffffffff8211156110e6576110e5611050565b5b6110ef82610e5d565b9050602081019050919050565b82818337600083830152505050565b600061111e611119846110cb565b6110b0565b90508281526020810184848401111561113a5761113961104b565b5b6111458482856110fc565b509392505050565b600082601f83011261116257611161611046565b5b813561117284826020860161110b565b91505092915050565b60008060008060008060c0878903121561119857611197610d2e565b5b60006111a689828a01610d59565b965050602087013567ffffffffffffffff8111156111c7576111c6610d33565b5b6111d389828a0161114d565b95505060406111e489828a01610d59565b945050606087013567ffffffffffffffff81111561120557611204610d33565b5b61121189828a0161114d565b935050608061122289828a01610d59565b92505060a061123389828a01610d59565b9150509295509295509295565b61124981610d38565b82525050565b61125881610df6565b82525050565b600082825260208201905092915050565b600061127a82610e17565b611284818561125e565b9350611294818560208601610e33565b61129d81610e5d565b840191505092915050565b6112b181610ea7565b82525050565b600060e0820190506112cc600083018a611240565b6112d96020830189611240565b6112e66040830188611240565b6112f3606083018761124f565b8181036080830152611305818661126f565b905061131460a0830185611240565b61132160c08301846112a8565b98975050505050505050565b600060e0830160008301516113456000860182610dc7565b5060208301516113586020860182610dc7565b50604083015161136b6040860182610dc7565b50606083015161137e6060860182610e08565b50608083015184820360808601526113968282610e6e565b91505060a08301516113ab60a0860182610dc7565b5060c08301516113be60c0860182610eb3565b508091505092915050565b600060208201905081810360008301526113e3818461132d565b905092915050565b6000806040838503121561140257611401610d2e565b5b600061141085828601610d59565b925050602061142185828601610d59565b9150509250929050565b600061012082019050611441600083018c611240565b61144e602083018b611240565b61145b604083018a61124f565b818103606083015261146d818961126f565b905061147c6080830188611240565b81810360a083015261148e818761126f565b905061149d60c0830186611240565b6114aa60e0830185611240565b6114b86101008301846112a8565b9a9950505050505050505050565b7f4e487b7100000000000000000000000000000000000000000000000000000000600052602260045260246000fd5b6000600282049050600182168061150d57607f821691505b6020821081036115205761151f6114c6565b5b50919050565b7f4e487b7100000000000000000000000000000000000000000000000000000000600052601160045260246000fd5b600061156082610d38565b91507fffffffffffffffffffffffffffffffffffffffffffffffffffffffffffffffff820361159257611591611526565b5b600182019050919050565b60008190508160005260206000209050919050565b60006020601f8301049050919050565b600082821b905092915050565b6000600883026115ff7fffffffffffffffffffffffffffffffffffffffffffffffffffffffffffffffff826115c2565b61160986836115c2565b95508019841693508086168417925050509392505050565b6000819050919050565b600061164661164161163c84610d38565b611621565b610d38565b9050919050565b6000819050919050565b6116608361162b565b61167461166c8261164d565b8484546115cf565b825550505050565b600090565b61168961167c565b611694818484611657565b505050565b5b818110156116b8576116ad600082611681565b60018101905061169a565b5050565b601f8211156116fd576116ce8161159d565b6116d7846115b2565b810160208510156116e6578190505b6116fa6116f2856115b2565b830182611699565b50505b505050565b600082821c905092915050565b600061172060001984600802611702565b1980831691505092915050565b6000611739838361170f565b9150826002028217905092915050565b61175282610e17565b67ffffffffffffffff81111561176b5761176a611050565b5b61177582546114f5565b6117808282856116bc565b600060209050601f8311600181146117b357600084156117a1578287015190505b6117ab858261172d565b865550611813565b601f1984166117c18661159d565b60005b828110156117e9578489015182556001820191506020850194506020810190506117c4565b868310156118065784890151611802601f89168261170f565b8355505b6001600288020188555050505b505050505050565b60006060820190506118306000830186611240565b61183d6020830185611240565b818103604083015261184f818461126f565b9050949350505050565b7f4e487b7100000000000000000000000000000000000000000000000000000000600052603260045260246000fd5b7f57696e6e696e6720626964206e6f7420666f756e640000000000000000000000600082015250565b60006118be60158361125e565b91506118c982611888565b602082019050919050565b600060208201905081810360008301526118ed816118b1565b9050919050565b60006060820190506119096000830186611240565b6119166020830185611240565b611923604083018461124f565b94935050505056fea264697066735822122084d5d9a90d3f21799bc178bed0a690e4c87a5d05b73dcfe12af82d794897383c64736f6c634300081c0033",
  "linkReferences": {},
  "deployedLinkReferences": {}
}