{
  "_format": "hh-sol-artifact-1",
  "contractName": "IssueManagement",
  "sourceName": "contracts/IssueManagement.sol",
  "abi": [
    {
      "anonymous": false,
      "inputs": [
        {
          "indexed": false,
          "internalType": "uint256",
          "name": "issueId",
          "type": "uint256"
        },
        {
          "indexed": false,
          "internalType": "string",
          "name": "issueName",
          "type": "string"
        },
        {
          "indexed": false,
          "internalType": "string",
          "name": "description",
          "type": "string"
        },
        {
          "indexed": false,
          "internalType": "string",
          "name": "dateOfComplaint",
          "type": "string"
        },
        {
          "indexed": false,
          "internalType": "address",
          "name": "creator",
          "type": "address"
        }
      ],
      "name": "IssueCreated",
      "type": "event"
    },
    {
      "anonymous": false,
      "inputs": [
        {
          "indexed": false,
          "internalType": "uint256",
          "name": "issueId",
          "type": "uint256"
        }
      ],
      "name": "IssueResolved",
      "type": "event"
    },
    {
      "anonymous": false,
      "inputs": [
        {
          "indexed": false,
          "internalType": "uint256",
          "name": "issueId",
          "type": "uint256"
        },
        {
          "indexed": false,
          "internalType": "address",
          "name": "voter",
          "type": "address"
        },
        {
          "indexed": false,
          "internalType": "bool",
          "name": "approved",
          "type": "bool"
        }
      ],
      "name": "VoteCast",
      "type": "event"
    },
    {
      "inputs": [
        {
          "internalType": "uint256",
          "name": "_issueId",
          "type": "uint256"
        },
        {
          "internalType": "string",
          "name": "_issueName",
          "type": "string"
        },
        {
          "internalType": "string",
          "name": "_description",
          "type": "string"
        },
        {
          "internalType": "string",
          "name": "_dateOfComplaint",
          "type": "string"
        },
        {
          "internalType": "uint256",
          "name": "_approval",
          "type": "uint256"
        },
        {
          "internalType": "uint256",
          "name": "_denial",
          "type": "uint256"
        },
        {
          "internalType": "uint256",
          "name": "_accuracy",
          "type": "uint256"
        },
        {
          "internalType": "int256",
          "name": "_altitude",
          "type": "int256"
        },
        {
          "internalType": "int256",
          "name": "_latitude",
          "type": "int256"
        },
        {
          "internalType": "int256",
          "name": "_longitude",
          "type": "int256"
        }
      ],
      "name": "createIssue",
      "outputs": [],
      "stateMutability": "nonpayable",
      "type": "function"
    },
    {
      "inputs": [],
      "name": "getAllIssues",
      "outputs": [
        {
          "internalType": "uint256[]",
          "name": "",
          "type": "uint256[]"
        },
        {
          "internalType": "string[]",
          "name": "",
          "type": "string[]"
        },
        {
          "internalType": "string[]",
          "name": "",
          "type": "string[]"
        },
        {
          "internalType": "uint256[]",
          "name": "",
          "type": "uint256[]"
        },
        {
          "internalType": "int256[]",
          "name": "",
          "type": "int256[]"
        },
        {
          "internalType": "int256[]",
          "name": "",
          "type": "int256[]"
        }
      ],
      "stateMutability": "view",
      "type": "function"
    },
    {
      "inputs": [
        {
          "internalType": "uint256",
          "name": "_issueId",
          "type": "uint256"
        }
      ],
      "name": "getIssueById",
      "outputs": [
        {
          "internalType": "uint256",
          "name": "issueId",
          "type": "uint256"
        },
        {
          "internalType": "string",
          "name": "issueName",
          "type": "string"
        },
        {
          "internalType": "string",
          "name": "description",
          "type": "string"
        }
      ],
      "stateMutability": "view",
      "type": "function"
    },
    {
      "inputs": [],
      "name": "getIssueCount",
      "outputs": [
        {
          "internalType": "uint256",
          "name": "",
          "type": "uint256"
        }
      ],
      "stateMutability": "view",
      "type": "function"
    },
    {
      "inputs": [
        {
          "internalType": "uint256",
          "name": "",
          "type": "uint256"
        }
      ],
      "name": "issues",
      "outputs": [
        {
          "internalType": "uint256",
          "name": "issueId",
          "type": "uint256"
        },
        {
          "internalType": "string",
          "name": "issueName",
          "type": "string"
        },
        {
          "internalType": "string",
          "name": "description",
          "type": "string"
        },
        {
          "internalType": "string",
          "name": "dateOfComplaint",
          "type": "string"
        },
        {
          "internalType": "uint256",
          "name": "approvalVotes",
          "type": "uint256"
        },
        {
          "internalType": "uint256",
          "name": "denialVotes",
          "type": "uint256"
        },
        {
          "components": [
            {
              "internalType": "uint256",
              "name": "accuracy",
              "type": "uint256"
            },
            {
              "internalType": "int256",
              "name": "altitude",
              "type": "int256"
            },
            {
              "internalType": "int256",
              "name": "latitude",
              "type": "int256"
            },
            {
              "internalType": "int256",
              "name": "longitude",
              "type": "int256"
            }
          ],
          "internalType": "struct IssueManagement.Location",
          "name": "location",
          "type": "tuple"
        },
        {
          "internalType": "address",
          "name": "creator",
          "type": "address"
        },
        {
          "internalType": "bool",
          "name": "resolved",
          "type": "bool"
        }
      ],
      "stateMutability": "view",
      "type": "function"
    },
    {
      "inputs": [
        {
          "internalType": "uint256",
          "name": "_issueId",
          "type": "uint256"
        }
      ],
      "name": "resolveIssue",
      "outputs": [],
      "stateMutability": "nonpayable",
      "type": "function"
    },
    {
      "inputs": [
        {
          "internalType": "uint256",
          "name": "_issueId",
          "type": "uint256"
        },
        {
          "internalType": "bool",
          "name": "_approve",
          "type": "bool"
        }
      ],
      "name": "voteOnIssue",
      "outputs": [],
      "stateMutability": "nonpayable",
      "type": "function"
    }
  ],
  "bytecode": "0x6080604052348015600f57600080fd5b50611edf8061001f6000396000f3fe608060405234801561001057600080fd5b506004361061007d5760003560e01c80634597654f1161005b5780634597654f146100f45780638e9e3aad14610110578063c98244d01461012c578063f7e081631461015e5761007d565b806304e15de5146100825780630d4c4708146100ba5780632302689c146100d8575b600080fd5b61009c60048036038101906100979190611005565b610181565b6040516100b1999897969594939291906111aa565b60405180910390f35b6100c26103d6565b6040516100cf919061124d565b60405180910390f35b6100f260048036038101906100ed9190611294565b6103e2565b005b61010e60048036038101906101099190611005565b610609565b005b61012a60048036038101906101259190611435565b61071f565b005b61014660048036038101906101419190611005565b6108c0565b60405161015593929190611568565b60405180910390f35b610166610ae5565b60405161017896959493929190611817565b60405180910390f35b6000818154811061019157600080fd5b90600052602060002090600c02016000915090508060000154908060010180546101ba906118d1565b80601f01602080910402602001604051908101604052809291908181526020018280546101e6906118d1565b80156102335780601f1061020857610100808354040283529160200191610233565b820191906000526020600020905b81548152906001019060200180831161021657829003601f168201915b505050505090806002018054610248906118d1565b80601f0160208091040260200160405190810160405280929190818152602001828054610274906118d1565b80156102c15780601f10610296576101008083540402835291602001916102c1565b820191906000526020600020905b8154815290600101906020018083116102a457829003601f168201915b5050505050908060030180546102d6906118d1565b80601f0160208091040260200160405190810160405280929190818152602001828054610302906118d1565b801561034f5780601f106103245761010080835404028352916020019161034f565b820191906000526020600020905b81548152906001019060200180831161033257829003601f168201915b505050505090806004015490806005015490806006016040518060800160405290816000820154815260200160018201548152602001600282015481526020016003820154815250509080600a0160009054906101000a900473ffffffffffffffffffffffffffffffffffffffff169080600a0160149054906101000a900460ff16905089565b60008080549050905090565b6000805490508210610429576040517f08c379a00000000000000000000000000000000000000000000000000000000081526004016104209061194e565b60405180910390fd5b600080838154811061043e5761043d61196e565b5b90600052602060002090600c0201905080600a0160149054906101000a900460ff16156104a0576040517f08c379a0000000000000000000000000000000000000000000000000000000008152600401610497906119e9565b60405180910390fd5b80600b0160003373ffffffffffffffffffffffffffffffffffffffff1673ffffffffffffffffffffffffffffffffffffffff16815260200190815260200160002060009054906101000a900460ff161561052f576040517f08c379a000000000000000000000000000000000000000000000000000000000815260040161052690611a55565b60405180910390fd5b81156105545780600401600081548092919061054a90611aa4565b919050555061056f565b80600501600081548092919061056990611aa4565b91905055505b600181600b0160003373ffffffffffffffffffffffffffffffffffffffff1673ffffffffffffffffffffffffffffffffffffffff16815260200190815260200160002060006101000a81548160ff0219169083151502179055507fe71fcdac32df1877c1700e7bda2a03157e20993363a28fc35ac495cefc76e4d48333846040516105fc93929190611aec565b60405180910390a1505050565b6000805490508110610650576040517f08c379a00000000000000000000000000000000000000000000000000000000081526004016106479061194e565b60405180910390fd5b60008082815481106106655761066461196e565b5b90600052602060002090600c0201905080600a0160149054906101000a900460ff16156106c7576040517f08c379a00000000000000000000000000000000000000000000000000000000081526004016106be906119e9565b60405180910390fd5b600181600a0160146101000a81548160ff0219169083151502179055507fefc3caf2e4b08f41d5380ca4184c2818fc142ad5e07c161416b764d4c23dbf2c82604051610713919061124d565b60405180910390a15050565b60006001816001815401808255809150500390600052602060002090505060008060016000805490506107529190611b23565b815481106107635761076261196e565b5b90600052602060002090600c020190508a81600001819055508981600101908161078d9190611d03565b508881600201908161079f9190611d03565b50878160030190816107b19190611d03565b5086816004018190555085816005018190555060405180608001604052808681526020018581526020018481526020018381525081600601600082015181600001556020820151816001015560408201518160020155606082015181600301559050503381600a0160006101000a81548173ffffffffffffffffffffffffffffffffffffffff021916908373ffffffffffffffffffffffffffffffffffffffff160217905550600081600a0160146101000a81548160ff0219169083151502179055507fdeed2a5a2757441d7be72775e6b904229aa97d5583567ba418580423e9dd4db38b8b8b8b336040516108ab959493929190611dd5565b60405180910390a15050505050505050505050565b600060608060005b600080549050811015610aa25784600082815481106108ea576108e961196e565b5b90600052602060002090600c02016000015403610a9557600081815481106109155761091461196e565b5b90600052602060002090600c0201600001546000828154811061093b5761093a61196e565b5b90600052602060002090600c0201600101600083815481106109605761095f61196e565b5b90600052602060002090600c020160020181805461097d906118d1565b80601f01602080910402602001604051908101604052809291908181526020018280546109a9906118d1565b80156109f65780601f106109cb576101008083540402835291602001916109f6565b820191906000526020600020905b8154815290600101906020018083116109d957829003601f168201915b50505050509150808054610a09906118d1565b80601f0160208091040260200160405190810160405280929190818152602001828054610a35906118d1565b8015610a825780601f10610a5757610100808354040283529160200191610a82565b820191906000526020600020905b815481529060010190602001808311610a6557829003601f168201915b5050505050905093509350935050610ade565b80806001019150506108c8565b506040517f08c379a0000000000000000000000000000000000000000000000000000000008152600401610ad590611e89565b60405180910390fd5b9193909250565b60608060608060608060008080549050905060008167ffffffffffffffff811115610b1357610b126112de565b5b604051908082528060200260200182016040528015610b415781602001602082028036833780820191505090505b50905060008267ffffffffffffffff811115610b6057610b5f6112de565b5b604051908082528060200260200182016040528015610b9357816020015b6060815260200190600190039081610b7e5790505b50905060008367ffffffffffffffff811115610bb257610bb16112de565b5b604051908082528060200260200182016040528015610be557816020015b6060815260200190600190039081610bd05790505b50905060008467ffffffffffffffff811115610c0457610c036112de565b5b604051908082528060200260200182016040528015610c325781602001602082028036833780820191505090505b50905060008567ffffffffffffffff811115610c5157610c506112de565b5b604051908082528060200260200182016040528015610c7f5781602001602082028036833780820191505090505b50905060008667ffffffffffffffff811115610c9e57610c9d6112de565b5b604051908082528060200260200182016040528015610ccc5781602001602082028036833780820191505090505b50905060005b87811015610f995760008181548110610cee57610ced61196e565b5b90600052602060002090600c020160000154878281518110610d1357610d1261196e565b5b60200260200101818152505060008181548110610d3357610d3261196e565b5b90600052602060002090600c02016001018054610d4f906118d1565b80601f0160208091040260200160405190810160405280929190818152602001828054610d7b906118d1565b8015610dc85780601f10610d9d57610100808354040283529160200191610dc8565b820191906000526020600020905b815481529060010190602001808311610dab57829003601f168201915b5050505050868281518110610de057610ddf61196e565b5b602002602001018190525060008181548110610dff57610dfe61196e565b5b90600052602060002090600c02016002018054610e1b906118d1565b80601f0160208091040260200160405190810160405280929190818152602001828054610e47906118d1565b8015610e945780601f10610e6957610100808354040283529160200191610e94565b820191906000526020600020905b815481529060010190602001808311610e7757829003601f168201915b5050505050858281518110610eac57610eab61196e565b5b602002602001018190525060008181548110610ecb57610eca61196e565b5b90600052602060002090600c020160040154848281518110610ef057610eef61196e565b5b60200260200101818152505060008181548110610f1057610f0f61196e565b5b90600052602060002090600c020160060160020154838281518110610f3857610f3761196e565b5b60200260200101818152505060008181548110610f5857610f5761196e565b5b90600052602060002090600c020160060160030154828281518110610f8057610f7f61196e565b5b6020026020010181815250508080600101915050610cd2565b508585858585859c509c509c509c509c509c5050505050505050909192939495565b6000604051905090565b600080fd5b600080fd5b6000819050919050565b610fe281610fcf565b8114610fed57600080fd5b50565b600081359050610fff81610fd9565b92915050565b60006020828403121561101b5761101a610fc5565b5b600061102984828501610ff0565b91505092915050565b61103b81610fcf565b82525050565b600081519050919050565b600082825260208201905092915050565b60005b8381101561107b578082015181840152602081019050611060565b60008484015250505050565b6000601f19601f8301169050919050565b60006110a382611041565b6110ad818561104c565b93506110bd81856020860161105d565b6110c681611087565b840191505092915050565b6110da81610fcf565b82525050565b6000819050919050565b6110f3816110e0565b82525050565b60808201600082015161110f60008501826110d1565b50602082015161112260208501826110ea565b50604082015161113560408501826110ea565b50606082015161114860608501826110ea565b50505050565b600073ffffffffffffffffffffffffffffffffffffffff82169050919050565b60006111798261114e565b9050919050565b6111898161116e565b82525050565b60008115159050919050565b6111a48161118f565b82525050565b6000610180820190506111c0600083018c611032565b81810360208301526111d2818b611098565b905081810360408301526111e6818a611098565b905081810360608301526111fa8189611098565b90506112096080830188611032565b61121660a0830187611032565b61122360c08301866110f9565b611231610140830185611180565b61123f61016083018461119b565b9a9950505050505050505050565b60006020820190506112626000830184611032565b92915050565b6112718161118f565b811461127c57600080fd5b50565b60008135905061128e81611268565b92915050565b600080604083850312156112ab576112aa610fc5565b5b60006112b985828601610ff0565b92505060206112ca8582860161127f565b9150509250929050565b600080fd5b600080fd5b7f4e487b7100000000000000000000000000000000000000000000000000000000600052604160045260246000fd5b61131682611087565b810181811067ffffffffffffffff82111715611335576113346112de565b5b80604052505050565b6000611348610fbb565b9050611354828261130d565b919050565b600067ffffffffffffffff821115611374576113736112de565b5b61137d82611087565b9050602081019050919050565b82818337600083830152505050565b60006113ac6113a784611359565b61133e565b9050828152602081018484840111156113c8576113c76112d9565b5b6113d384828561138a565b509392505050565b600082601f8301126113f0576113ef6112d4565b5b8135611400848260208601611399565b91505092915050565b611412816110e0565b811461141d57600080fd5b50565b60008135905061142f81611409565b92915050565b6000806000806000806000806000806101408b8d03121561145957611458610fc5565b5b60006114678d828e01610ff0565b9a505060208b013567ffffffffffffffff81111561148857611487610fca565b5b6114948d828e016113db565b99505060408b013567ffffffffffffffff8111156114b5576114b4610fca565b5b6114c18d828e016113db565b98505060608b013567ffffffffffffffff8111156114e2576114e1610fca565b5b6114ee8d828e016113db565b97505060806114ff8d828e01610ff0565b96505060a06115108d828e01610ff0565b95505060c06115218d828e01610ff0565b94505060e06115328d828e01611420565b9350506101006115448d828e01611420565b9250506101206115568d828e01611420565b9150509295989b9194979a5092959850565b600060608201905061157d6000830186611032565b818103602083015261158f8185611098565b905081810360408301526115a38184611098565b9050949350505050565b600081519050919050565b600082825260208201905092915050565b6000819050602082019050919050565b60006115e583836110d1565b60208301905092915050565b6000602082019050919050565b6000611609826115ad565b61161381856115b8565b935061161e836115c9565b8060005b8381101561164f57815161163688826115d9565b9750611641836115f1565b925050600181019050611622565b5085935050505092915050565b600081519050919050565b600082825260208201905092915050565b6000819050602082019050919050565b600082825260208201905092915050565b60006116a482611041565b6116ae8185611688565b93506116be81856020860161105d565b6116c781611087565b840191505092915050565b60006116de8383611699565b905092915050565b6000602082019050919050565b60006116fe8261165c565b6117088185611667565b93508360208202850161171a85611678565b8060005b85811015611756578484038952815161173785826116d2565b9450611742836116e6565b925060208a0199505060018101905061171e565b50829750879550505050505092915050565b600081519050919050565b600082825260208201905092915050565b6000819050602082019050919050565b60006117a083836110ea565b60208301905092915050565b6000602082019050919050565b60006117c482611768565b6117ce8185611773565b93506117d983611784565b8060005b8381101561180a5781516117f18882611794565b97506117fc836117ac565b9250506001810190506117dd565b5085935050505092915050565b600060c082019050818103600083015261183181896115fe565b9050818103602083015261184581886116f3565b9050818103604083015261185981876116f3565b9050818103606083015261186d81866115fe565b9050818103608083015261188181856117b9565b905081810360a083015261189581846117b9565b9050979650505050505050565b7f4e487b7100000000000000000000000000000000000000000000000000000000600052602260045260246000fd5b600060028204905060018216806118e957607f821691505b6020821081036118fc576118fb6118a2565b5b50919050565b7f496e76616c696420697373756520494400000000000000000000000000000000600082015250565b600061193860108361104c565b915061194382611902565b602082019050919050565b600060208201905081810360008301526119678161192b565b9050919050565b7f4e487b7100000000000000000000000000000000000000000000000000000000600052603260045260246000fd5b7f497373756520616c7265616479207265736f6c76656400000000000000000000600082015250565b60006119d360168361104c565b91506119de8261199d565b602082019050919050565b60006020820190508181036000830152611a02816119c6565b9050919050565b7f596f75206861766520616c726561647920766f74656400000000000000000000600082015250565b6000611a3f60168361104c565b9150611a4a82611a09565b602082019050919050565b60006020820190508181036000830152611a6e81611a32565b9050919050565b7f4e487b7100000000000000000000000000000000000000000000000000000000600052601160045260246000fd5b6000611aaf82610fcf565b91507fffffffffffffffffffffffffffffffffffffffffffffffffffffffffffffffff8203611ae157611ae0611a75565b5b600182019050919050565b6000606082019050611b016000830186611032565b611b0e6020830185611180565b611b1b604083018461119b565b949350505050565b6000611b2e82610fcf565b9150611b3983610fcf565b9250828203905081811115611b5157611b50611a75565b5b92915050565b60008190508160005260206000209050919050565b60006020601f8301049050919050565b600082821b905092915050565b600060088302611bb97fffffffffffffffffffffffffffffffffffffffffffffffffffffffffffffffff82611b7c565b611bc38683611b7c565b95508019841693508086168417925050509392505050565b6000819050919050565b6000611c00611bfb611bf684610fcf565b611bdb565b610fcf565b9050919050565b6000819050919050565b611c1a83611be5565b611c2e611c2682611c07565b848454611b89565b825550505050565b600090565b611c43611c36565b611c4e818484611c11565b505050565b5b81811015611c7257611c67600082611c3b565b600181019050611c54565b5050565b601f821115611cb757611c8881611b57565b611c9184611b6c565b81016020851015611ca0578190505b611cb4611cac85611b6c565b830182611c53565b50505b505050565b600082821c905092915050565b6000611cda60001984600802611cbc565b1980831691505092915050565b6000611cf38383611cc9565b9150826002028217905092915050565b611d0c82611041565b67ffffffffffffffff811115611d2557611d246112de565b5b611d2f82546118d1565b611d3a828285611c76565b600060209050601f831160018114611d6d5760008415611d5b578287015190505b611d658582611ce7565b865550611dcd565b601f198416611d7b86611b57565b60005b82811015611da357848901518255600182019150602085019450602081019050611d7e565b86831015611dc05784890151611dbc601f891682611cc9565b8355505b6001600288020188555050505b505050505050565b600060a082019050611dea6000830188611032565b8181036020830152611dfc8187611098565b90508181036040830152611e108186611098565b90508181036060830152611e248185611098565b9050611e336080830184611180565b9695505050505050565b7f4973737565206e6f7420666f756e640000000000000000000000000000000000600082015250565b6000611e73600f8361104c565b9150611e7e82611e3d565b602082019050919050565b60006020820190508181036000830152611ea281611e66565b905091905056fea2646970667358221220538a8d505ff5112715d19aead99250e5d0ea0bb82a08fedc170ec35560fa1f7e64736f6c634300081c0033",
  "linkReferences": {},
  "deployedLinkReferences": {}
}