{
  "_format": "hh-sol-artifact-1",
  "contractName": "TenderCreation",
  "sourceName": "contracts/TenderCreation.sol",
  "abi": [
    {
      "anonymous": false,
      "inputs": [
        {
          "indexed": false,
          "internalType": "uint256",
          "name": "tenderId",
          "type": "uint256"
        },
        {
          "indexed": false,
          "internalType": "string",
          "name": "title",
          "type": "string"
        },
        {
          "indexed": false,
          "internalType": "string",
          "name": "createdByMongoId",
          "type": "string"
        }
      ],
      "name": "TenderCreated",
      "type": "event"
    },
    {
      "inputs": [
        {
          "internalType": "string",
          "name": "_title",
          "type": "string"
        },
        {
          "internalType": "string",
          "name": "_description",
          "type": "string"
        },
        {
          "internalType": "string",
          "name": "_category",
          "type": "string"
        },
        {
          "internalType": "uint256",
          "name": "_minBidAmount",
          "type": "uint256"
        },
        {
          "internalType": "uint256",
          "name": "_maxBidAmount",
          "type": "uint256"
        },
        {
          "internalType": "uint256",
          "name": "_bidOpeningDate",
          "type": "uint256"
        },
        {
          "internalType": "uint256",
          "name": "_bidClosingDate",
          "type": "uint256"
        },
        {
          "internalType": "string",
          "name": "_location",
          "type": "string"
        },
        {
          "internalType": "string",
          "name": "_createdByMongoId",
          "type": "string"
        }
      ],
      "name": "createTender",
      "outputs": [],
      "stateMutability": "nonpayable",
      "type": "function"
    },
    {
      "inputs": [],
      "name": "getAllTenders",
      "outputs": [
        {
          "components": [
            {
              "internalType": "uint256",
              "name": "tenderId",
              "type": "uint256"
            },
            {
              "internalType": "string",
              "name": "title",
              "type": "string"
            },
            {
              "internalType": "string",
              "name": "description",
              "type": "string"
            },
            {
              "internalType": "string",
              "name": "category",
              "type": "string"
            },
            {
              "internalType": "uint256",
              "name": "minBidAmount",
              "type": "uint256"
            },
            {
              "internalType": "uint256",
              "name": "maxBidAmount",
              "type": "uint256"
            },
            {
              "internalType": "uint256",
              "name": "bidOpeningDate",
              "type": "uint256"
            },
            {
              "internalType": "uint256",
              "name": "bidClosingDate",
              "type": "uint256"
            },
            {
              "internalType": "string",
              "name": "location",
              "type": "string"
            },
            {
              "internalType": "string",
              "name": "createdByMongoId",
              "type": "string"
            },
            {
              "internalType": "address",
              "name": "createdBy",
              "type": "address"
            },
            {
              "internalType": "bool",
              "name": "isActive",
              "type": "bool"
            }
          ],
          "internalType": "struct TenderCreation.Tender[]",
          "name": "",
          "type": "tuple[]"
        }
      ],
      "stateMutability": "view",
      "type": "function"
    },
    {
      "inputs": [
        {
          "internalType": "uint256",
          "name": "_tenderId",
          "type": "uint256"
        }
      ],
      "name": "getTender",
      "outputs": [
        {
          "components": [
            {
              "internalType": "uint256",
              "name": "tenderId",
              "type": "uint256"
            },
            {
              "internalType": "string",
              "name": "title",
              "type": "string"
            },
            {
              "internalType": "string",
              "name": "description",
              "type": "string"
            },
            {
              "internalType": "string",
              "name": "category",
              "type": "string"
            },
            {
              "internalType": "uint256",
              "name": "minBidAmount",
              "type": "uint256"
            },
            {
              "internalType": "uint256",
              "name": "maxBidAmount",
              "type": "uint256"
            },
            {
              "internalType": "uint256",
              "name": "bidOpeningDate",
              "type": "uint256"
            },
            {
              "internalType": "uint256",
              "name": "bidClosingDate",
              "type": "uint256"
            },
            {
              "internalType": "string",
              "name": "location",
              "type": "string"
            },
            {
              "internalType": "string",
              "name": "createdByMongoId",
              "type": "string"
            },
            {
              "internalType": "address",
              "name": "createdBy",
              "type": "address"
            },
            {
              "internalType": "bool",
              "name": "isActive",
              "type": "bool"
            }
          ],
          "internalType": "struct TenderCreation.Tender",
          "name": "",
          "type": "tuple"
        }
      ],
      "stateMutability": "view",
      "type": "function"
    },
    {
      "inputs": [
        {
          "internalType": "uint256",
          "name": "",
          "type": "uint256"
        }
      ],
      "name": "tenders",
      "outputs": [
        {
          "internalType": "uint256",
          "name": "tenderId",
          "type": "uint256"
        },
        {
          "internalType": "string",
          "name": "title",
          "type": "string"
        },
        {
          "internalType": "string",
          "name": "description",
          "type": "string"
        },
        {
          "internalType": "string",
          "name": "category",
          "type": "string"
        },
        {
          "internalType": "uint256",
          "name": "minBidAmount",
          "type": "uint256"
        },
        {
          "internalType": "uint256",
          "name": "maxBidAmount",
          "type": "uint256"
        },
        {
          "internalType": "uint256",
          "name": "bidOpeningDate",
          "type": "uint256"
        },
        {
          "internalType": "uint256",
          "name": "bidClosingDate",
          "type": "uint256"
        },
        {
          "internalType": "string",
          "name": "location",
          "type": "string"
        },
        {
          "internalType": "string",
          "name": "createdByMongoId",
          "type": "string"
        },
        {
          "internalType": "address",
          "name": "createdBy",
          "type": "address"
        },
        {
          "internalType": "bool",
          "name": "isActive",
          "type": "bool"
        }
      ],
      "stateMutability": "view",
      "type": "function"
    }
  ],
  "bytecode": "0x6080604052348015600f57600080fd5b50611bfe8061001f6000396000f3fe608060405234801561001057600080fd5b506004361061004c5760003560e01c80630585c25e146100515780632358c04614610081578063465e1def1461009f5780636ab8ade2146100da575b600080fd5b61006b60048036038101906100669190610f46565b6100f6565b604051610078919061118e565b60405180910390f35b6100896104a1565b6040516100969190611392565b60405180910390f35b6100b960048036038101906100b49190610f46565b61091e565b6040516100d19c9b9a9998979695949392919061142b565b60405180910390f35b6100f460048036038101906100ef919061163d565b610c53565b005b6100fe610e83565b600160008381526020019081526020016000206040518061018001604052908160008201548152602001600182018054610137906117c2565b80601f0160208091040260200160405190810160405280929190818152602001828054610163906117c2565b80156101b05780601f10610185576101008083540402835291602001916101b0565b820191906000526020600020905b81548152906001019060200180831161019357829003601f168201915b505050505081526020016002820180546101c9906117c2565b80601f01602080910402602001604051908101604052809291908181526020018280546101f5906117c2565b80156102425780601f1061021757610100808354040283529160200191610242565b820191906000526020600020905b81548152906001019060200180831161022557829003601f168201915b5050505050815260200160038201805461025b906117c2565b80601f0160208091040260200160405190810160405280929190818152602001828054610287906117c2565b80156102d45780601f106102a9576101008083540402835291602001916102d4565b820191906000526020600020905b8154815290600101906020018083116102b757829003601f168201915b5050505050815260200160048201548152602001600582015481526020016006820154815260200160078201548152602001600882018054610315906117c2565b80601f0160208091040260200160405190810160405280929190818152602001828054610341906117c2565b801561038e5780601f106103635761010080835404028352916020019161038e565b820191906000526020600020905b81548152906001019060200180831161037157829003601f168201915b505050505081526020016009820180546103a7906117c2565b80601f01602080910402602001604051908101604052809291908181526020018280546103d3906117c2565b80156104205780601f106103f557610100808354040283529160200191610420565b820191906000526020600020905b81548152906001019060200180831161040357829003601f168201915b50505050508152602001600a820160009054906101000a900473ffffffffffffffffffffffffffffffffffffffff1673ffffffffffffffffffffffffffffffffffffffff1673ffffffffffffffffffffffffffffffffffffffff168152602001600a820160149054906101000a900460ff1615151515815250509050919050565b60606000805467ffffffffffffffff8111156104c0576104bf611512565b5b6040519080825280602002602001820160405280156104f957816020015b6104e6610e83565b8152602001906001900390816104de5790505b509050600080600190505b60005481116109125760016000828152602001908152602001600020600a0160149054906101000a900460ff16156108ff5760016000828152602001908152602001600020604051806101800160405290816000820154815260200160018201805461056f906117c2565b80601f016020809104026020016040519081016040528092919081815260200182805461059b906117c2565b80156105e85780601f106105bd576101008083540402835291602001916105e8565b820191906000526020600020905b8154815290600101906020018083116105cb57829003601f168201915b50505050508152602001600282018054610601906117c2565b80601f016020809104026020016040519081016040528092919081815260200182805461062d906117c2565b801561067a5780601f1061064f5761010080835404028352916020019161067a565b820191906000526020600020905b81548152906001019060200180831161065d57829003601f168201915b50505050508152602001600382018054610693906117c2565b80601f01602080910402602001604051908101604052809291908181526020018280546106bf906117c2565b801561070c5780601f106106e15761010080835404028352916020019161070c565b820191906000526020600020905b8154815290600101906020018083116106ef57829003601f168201915b505050505081526020016004820154815260200160058201548152602001600682015481526020016007820154815260200160088201805461074d906117c2565b80601f0160208091040260200160405190810160405280929190818152602001828054610779906117c2565b80156107c65780601f1061079b576101008083540402835291602001916107c6565b820191906000526020600020905b8154815290600101906020018083116107a957829003601f168201915b505050505081526020016009820180546107df906117c2565b80601f016020809104026020016040519081016040528092919081815260200182805461080b906117c2565b80156108585780601f1061082d57610100808354040283529160200191610858565b820191906000526020600020905b81548152906001019060200180831161083b57829003601f168201915b50505050508152602001600a820160009054906101000a900473ffffffffffffffffffffffffffffffffffffffff1673ffffffffffffffffffffffffffffffffffffffff1673ffffffffffffffffffffffffffffffffffffffff168152602001600a820160149054906101000a900460ff1615151515815250508383815181106108e5576108e46117f3565b5b602002602001018190525081806108fb90611851565b9250505b808061090a90611851565b915050610504565b50808252819250505090565b6001602052806000526040600020600091509050806000015490806001018054610947906117c2565b80601f0160208091040260200160405190810160405280929190818152602001828054610973906117c2565b80156109c05780601f10610995576101008083540402835291602001916109c0565b820191906000526020600020905b8154815290600101906020018083116109a357829003601f168201915b5050505050908060020180546109d5906117c2565b80601f0160208091040260200160405190810160405280929190818152602001828054610a01906117c2565b8015610a4e5780601f10610a2357610100808354040283529160200191610a4e565b820191906000526020600020905b815481529060010190602001808311610a3157829003601f168201915b505050505090806003018054610a63906117c2565b80601f0160208091040260200160405190810160405280929190818152602001828054610a8f906117c2565b8015610adc5780601f10610ab157610100808354040283529160200191610adc565b820191906000526020600020905b815481529060010190602001808311610abf57829003601f168201915b505050505090806004015490806005015490806006015490806007015490806008018054610b09906117c2565b80601f0160208091040260200160405190810160405280929190818152602001828054610b35906117c2565b8015610b825780601f10610b5757610100808354040283529160200191610b82565b820191906000526020600020905b815481529060010190602001808311610b6557829003601f168201915b505050505090806009018054610b97906117c2565b80601f0160208091040260200160405190810160405280929190818152602001828054610bc3906117c2565b8015610c105780601f10610be557610100808354040283529160200191610c10565b820191906000526020600020905b815481529060010190602001808311610bf357829003601f168201915b50505050509080600a0160009054906101000a900473ffffffffffffffffffffffffffffffffffffffff169080600a0160149054906101000a900460ff1690508c565b828410610c95576040517f08c379a0000000000000000000000000000000000000000000000000000000008152600401610c8c906118e5565b60405180910390fd5b600080815480929190610ca790611851565b919050555060405180610180016040528060005481526020018a81526020018981526020018881526020018781526020018681526020018581526020018481526020018381526020018281526020013373ffffffffffffffffffffffffffffffffffffffff168152602001600115158152506001600080548152602001908152602001600020600082015181600001556020820151816001019081610d4c9190611ab1565b506040820151816002019081610d629190611ab1565b506060820151816003019081610d789190611ab1565b506080820151816004015560a0820151816005015560c0820151816006015560e08201518160070155610100820151816008019081610db79190611ab1565b50610120820151816009019081610dce9190611ab1565b5061014082015181600a0160006101000a81548173ffffffffffffffffffffffffffffffffffffffff021916908373ffffffffffffffffffffffffffffffffffffffff16021790555061016082015181600a0160146101000a81548160ff0219169083151502179055509050507ff460b79221804c84e4e15f660c34671c15044b94b137e2ac8ff05f6e66ac04f16000548a83604051610e7093929190611b83565b60405180910390a1505050505050505050565b60405180610180016040528060008152602001606081526020016060815260200160608152602001600081526020016000815260200160008152602001600081526020016060815260200160608152602001600073ffffffffffffffffffffffffffffffffffffffff1681526020016000151581525090565b6000604051905090565b600080fd5b600080fd5b6000819050919050565b610f2381610f10565b8114610f2e57600080fd5b50565b600081359050610f4081610f1a565b92915050565b600060208284031215610f5c57610f5b610f06565b5b6000610f6a84828501610f31565b91505092915050565b610f7c81610f10565b82525050565b600081519050919050565b600082825260208201905092915050565b60005b83811015610fbc578082015181840152602081019050610fa1565b60008484015250505050565b6000601f19601f8301169050919050565b6000610fe482610f82565b610fee8185610f8d565b9350610ffe818560208601610f9e565b61100781610fc8565b840191505092915050565b600073ffffffffffffffffffffffffffffffffffffffff82169050919050565b600061103d82611012565b9050919050565b61104d81611032565b82525050565b60008115159050919050565b61106881611053565b82525050565b6000610180830160008301516110876000860182610f73565b506020830151848203602086015261109f8282610fd9565b915050604083015184820360408601526110b98282610fd9565b915050606083015184820360608601526110d38282610fd9565b91505060808301516110e86080860182610f73565b5060a08301516110fb60a0860182610f73565b5060c083015161110e60c0860182610f73565b5060e083015161112160e0860182610f73565b5061010083015184820361010086015261113b8282610fd9565b9150506101208301518482036101208601526111578282610fd9565b91505061014083015161116e610140860182611044565b5061016083015161118361016086018261105f565b508091505092915050565b600060208201905081810360008301526111a8818461106e565b905092915050565b600081519050919050565b600082825260208201905092915050565b6000819050602082019050919050565b6000610180830160008301516111f56000860182610f73565b506020830151848203602086015261120d8282610fd9565b915050604083015184820360408601526112278282610fd9565b915050606083015184820360608601526112418282610fd9565b91505060808301516112566080860182610f73565b5060a083015161126960a0860182610f73565b5060c083015161127c60c0860182610f73565b5060e083015161128f60e0860182610f73565b506101008301518482036101008601526112a98282610fd9565b9150506101208301518482036101208601526112c58282610fd9565b9150506101408301516112dc610140860182611044565b506101608301516112f161016086018261105f565b508091505092915050565b600061130883836111dc565b905092915050565b6000602082019050919050565b6000611328826111b0565b61133281856111bb565b935083602082028501611344856111cc565b8060005b85811015611380578484038952815161136185826112fc565b945061136c83611310565b925060208a01995050600181019050611348565b50829750879550505050505092915050565b600060208201905081810360008301526113ac818461131d565b905092915050565b6113bd81610f10565b82525050565b600082825260208201905092915050565b60006113df82610f82565b6113e981856113c3565b93506113f9818560208601610f9e565b61140281610fc8565b840191505092915050565b61141681611032565b82525050565b61142581611053565b82525050565b600061018082019050611441600083018f6113b4565b8181036020830152611453818e6113d4565b90508181036040830152611467818d6113d4565b9050818103606083015261147b818c6113d4565b905061148a608083018b6113b4565b61149760a083018a6113b4565b6114a460c08301896113b4565b6114b160e08301886113b4565b8181036101008301526114c481876113d4565b90508181036101208301526114d981866113d4565b90506114e961014083018561140d565b6114f761016083018461141c565b9d9c50505050505050505050505050565b600080fd5b600080fd5b7f4e487b7100000000000000000000000000000000000000000000000000000000600052604160045260246000fd5b61154a82610fc8565b810181811067ffffffffffffffff8211171561156957611568611512565b5b80604052505050565b600061157c610efc565b90506115888282611541565b919050565b600067ffffffffffffffff8211156115a8576115a7611512565b5b6115b182610fc8565b9050602081019050919050565b82818337600083830152505050565b60006115e06115db8461158d565b611572565b9050828152602081018484840111156115fc576115fb61150d565b5b6116078482856115be565b509392505050565b600082601f83011261162457611623611508565b5b81356116348482602086016115cd565b91505092915050565b60008060008060008060008060006101208a8c0312156116605761165f610f06565b5b60008a013567ffffffffffffffff81111561167e5761167d610f0b565b5b61168a8c828d0161160f565b99505060208a013567ffffffffffffffff8111156116ab576116aa610f0b565b5b6116b78c828d0161160f565b98505060408a013567ffffffffffffffff8111156116d8576116d7610f0b565b5b6116e48c828d0161160f565b97505060606116f58c828d01610f31565b96505060806117068c828d01610f31565b95505060a06117178c828d01610f31565b94505060c06117288c828d01610f31565b93505060e08a013567ffffffffffffffff81111561174957611748610f0b565b5b6117558c828d0161160f565b9250506101008a013567ffffffffffffffff81111561177757611776610f0b565b5b6117838c828d0161160f565b9150509295985092959850929598565b7f4e487b7100000000000000000000000000000000000000000000000000000000600052602260045260246000fd5b600060028204905060018216806117da57607f821691505b6020821081036117ed576117ec611793565b5b50919050565b7f4e487b7100000000000000000000000000000000000000000000000000000000600052603260045260246000fd5b7f4e487b7100000000000000000000000000000000000000000000000000000000600052601160045260246000fd5b600061185c82610f10565b91507fffffffffffffffffffffffffffffffffffffffffffffffffffffffffffffffff820361188e5761188d611822565b5b600182019050919050565b7f496e76616c696420626964206461746573000000000000000000000000000000600082015250565b60006118cf6011836113c3565b91506118da82611899565b602082019050919050565b600060208201905081810360008301526118fe816118c2565b9050919050565b60008190508160005260206000209050919050565b60006020601f8301049050919050565b600082821b905092915050565b6000600883026119677fffffffffffffffffffffffffffffffffffffffffffffffffffffffffffffffff8261192a565b611971868361192a565b95508019841693508086168417925050509392505050565b6000819050919050565b60006119ae6119a96119a484610f10565b611989565b610f10565b9050919050565b6000819050919050565b6119c883611993565b6119dc6119d4826119b5565b848454611937565b825550505050565b600090565b6119f16119e4565b6119fc8184846119bf565b505050565b5b81811015611a2057611a156000826119e9565b600181019050611a02565b5050565b601f821115611a6557611a3681611905565b611a3f8461191a565b81016020851015611a4e578190505b611a62611a5a8561191a565b830182611a01565b50505b505050565b600082821c905092915050565b6000611a8860001984600802611a6a565b1980831691505092915050565b6000611aa18383611a77565b9150826002028217905092915050565b611aba82610f82565b67ffffffffffffffff811115611ad357611ad2611512565b5b611add82546117c2565b611ae8828285611a24565b600060209050601f831160018114611b1b5760008415611b09578287015190505b611b138582611a95565b865550611b7b565b601f198416611b2986611905565b60005b82811015611b5157848901518255600182019150602085019450602081019050611b2c565b86831015611b6e5784890151611b6a601f891682611a77565b8355505b6001600288020188555050505b505050505050565b6000606082019050611b9860008301866113b4565b8181036020830152611baa81856113d4565b90508181036040830152611bbe81846113d4565b905094935050505056fea2646970667358221220c178d592d53b8f6684d79c93065acf4eebbff007b89d4120a42e1a1b72fc48bf64736f6c634300081c0033",
  "linkReferences": {},
  "deployedLinkReferences": {}
}