{
  "_format": "hh-sol-artifact-1",
  "contractName": "VotingSystem",
  "sourceName": "contracts/VotingSystem.sol",
  "abi": [
    {
      "anonymous": false,
      "inputs": [
        {
          "indexed": false,
          "internalType": "uint256",
          "name": "spendId",
          "type": "uint256"
        },
        {
          "indexed": false,
          "internalType": "string",
          "name": "reason",
          "type": "string"
        }
      ],
      "name": "SpendCreated",
      "type": "event"
    },
    {
      "anonymous": false,
      "inputs": [
        {
          "indexed": false,
          "internalType": "uint256",
          "name": "spendId",
          "type": "uint256"
        },
        {
          "indexed": false,
          "internalType": "bool",
          "name": "approved",
          "type": "bool"
        }
      ],
      "name": "SpendVoted",
      "type": "event"
    },
    {
      "inputs": [
        {
          "internalType": "uint256",
          "name": "_spendId",
          "type": "uint256"
        },
        {
          "internalType": "string",
          "name": "_reason",
          "type": "string"
        }
      ],
      "name": "createSpend",
      "outputs": [],
      "stateMutability": "nonpayable",
      "type": "function"
    },
    {
      "inputs": [
        {
          "internalType": "uint256",
          "name": "_spendId",
          "type": "uint256"
        }
      ],
      "name": "getSpendById",
      "outputs": [
        {
          "internalType": "uint256",
          "name": "spendId",
          "type": "uint256"
        },
        {
          "internalType": "string",
          "name": "reason",
          "type": "string"
        },
        {
          "internalType": "uint256",
          "name": "totalVotes",
          "type": "uint256"
        },
        {
          "internalType": "uint256",
          "name": "approvalVotes",
          "type": "uint256"
        },
        {
          "internalType": "uint256",
          "name": "denialVotes",
          "type": "uint256"
        },
        {
          "internalType": "bool",
          "name": "approved",
          "type": "bool"
        },
        {
          "internalType": "bool",
          "name": "resolved",
          "type": "bool"
        }
      ],
      "stateMutability": "view",
      "type": "function"
    },
    {
      "inputs": [
        {
          "internalType": "uint256",
          "name": "",
          "type": "uint256"
        }
      ],
      "name": "spends",
      "outputs": [
        {
          "internalType": "uint256",
          "name": "spendId",
          "type": "uint256"
        },
        {
          "internalType": "string",
          "name": "reason",
          "type": "string"
        },
        {
          "internalType": "uint256",
          "name": "totalVotes",
          "type": "uint256"
        },
        {
          "internalType": "uint256",
          "name": "approvalVotes",
          "type": "uint256"
        },
        {
          "internalType": "uint256",
          "name": "denialVotes",
          "type": "uint256"
        },
        {
          "internalType": "bool",
          "name": "approved",
          "type": "bool"
        },
        {
          "internalType": "bool",
          "name": "resolved",
          "type": "bool"
        }
      ],
      "stateMutability": "view",
      "type": "function"
    },
    {
      "inputs": [
        {
          "internalType": "uint256",
          "name": "_spendId",
          "type": "uint256"
        },
        {
          "internalType": "uint256",
          "name": "_approvalVotes",
          "type": "uint256"
        },
        {
          "internalType": "uint256",
          "name": "_denialVotes",
          "type": "uint256"
        },
        {
          "internalType": "uint256",
          "name": "_totalVotes",
          "type": "uint256"
        }
      ],
      "name": "voteOnSpend",
      "outputs": [],
      "stateMutability": "nonpayable",
      "type": "function"
    }
  ],
  "bytecode": "0x6080604052348015600f57600080fd5b5061103c8061001f6000396000f3fe608060405234801561001057600080fd5b506004361061004c5760003560e01c80631886cab6146100515780636dac19ee14610087578063b334bf03146100a3578063dcfbb3d3146100bf575b600080fd5b61006b6004803603810190610066919061080e565b6100f5565b60405161007e97969594939291906108f5565b60405180910390f35b6100a1600480360381019061009c919061096b565b6101e9565b005b6100bd60048036038101906100b89190610b07565b610478565b005b6100d960048036038101906100d4919061080e565b61059c565b6040516100ec97969594939291906108f5565b60405180910390f35b6000818154811061010557600080fd5b906000526020600020906006020160009150905080600001549080600101805461012e90610b92565b80601f016020809104026020016040519081016040528092919081815260200182805461015a90610b92565b80156101a75780601f1061017c576101008083540402835291602001916101a7565b820191906000526020600020905b81548152906001019060200180831161018a57829003601f168201915b5050505050908060020154908060030154908060040154908060050160009054906101000a900460ff16908060050160019054906101000a900460ff16905087565b60005b60008054905081101561047157846000828154811061020e5761020d610bc3565b5b90600052602060002090600602016000015403610464576000818154811061023957610238610bc3565b5b906000526020600020906006020160050160019054906101000a900460ff1615610298576040517f08c379a000000000000000000000000000000000000000000000000000000000815260040161028f90610c3e565b60405180910390fd5b83600082815481106102ad576102ac610bc3565b5b90600052602060002090600602016003018190555082600082815481106102d7576102d6610bc3565b5b906000526020600020906006020160040181905550816000828154811061030157610300610bc3565b5b90600052602060002090600602016002018190555060016000828154811061032c5761032b610bc3565b5b906000526020600020906006020160050160016101000a81548160ff0219169083151502179055506033826064866103649190610c8d565b61036e9190610cfe565b106103b65760016000828154811061038957610388610bc3565b5b906000526020600020906006020160050160006101000a81548160ff0219169083151502179055506103f4565b60008082815481106103cb576103ca610bc3565b5b906000526020600020906006020160050160006101000a81548160ff0219169083151502179055505b7fc019c46d1f5f4ccee64778ee81f4df73b6f408eb6efcf3f613d768d8d9338f60856000838154811061042a57610429610bc3565b5b906000526020600020906006020160050160009054906101000a900460ff16604051610457929190610d2f565b60405180910390a1610471565b80806001019150506101ec565b5050505050565b60006040518060e001604052808481526020018381526020016000815260200160008152602001600081526020016000151581526020016000151581525090806001815401808255809150506001900390600052602060002090600602016000909190919091506000820151816000015560208201518160010190816104fe9190610f04565b5060408201518160020155606082015181600301556080820151816004015560a08201518160050160006101000a81548160ff02191690831515021790555060c08201518160050160016101000a81548160ff02191690831515021790555050507f10a2e600a3f565b83632ee064c8ff1b8416d1f92f4d53325e3c0584661498c508282604051610590929190610fd6565b60405180910390a15050565b60006060600080600080600080600090505b6000805490508110156107b75788600082815481106105d0576105cf610bc3565b5b906000526020600020906006020160000154036107aa57600081815481106105fb576105fa610bc3565b5b9060005260206000209060060201600001546000828154811061062157610620610bc3565b5b90600052602060002090600602016001016000838154811061064657610645610bc3565b5b9060005260206000209060060201600201546000848154811061066c5761066b610bc3565b5b9060005260206000209060060201600301546000858154811061069257610691610bc3565b5b906000526020600020906006020160040154600086815481106106b8576106b7610bc3565b5b906000526020600020906006020160050160009054906101000a900460ff16600087815481106106eb576106ea610bc3565b5b906000526020600020906006020160050160019054906101000a900460ff1685805461071690610b92565b80601f016020809104026020016040519081016040528092919081815260200182805461074290610b92565b801561078f5780601f106107645761010080835404028352916020019161078f565b820191906000526020600020905b81548152906001019060200180831161077257829003601f168201915b505050505095509750975097509750975097509750506107b9565b80806001019150506105ae565b505b919395979092949650565b6000604051905090565b600080fd5b600080fd5b6000819050919050565b6107eb816107d8565b81146107f657600080fd5b50565b600081359050610808816107e2565b92915050565b600060208284031215610824576108236107ce565b5b6000610832848285016107f9565b91505092915050565b610844816107d8565b82525050565b600081519050919050565b600082825260208201905092915050565b60005b83811015610884578082015181840152602081019050610869565b60008484015250505050565b6000601f19601f8301169050919050565b60006108ac8261084a565b6108b68185610855565b93506108c6818560208601610866565b6108cf81610890565b840191505092915050565b60008115159050919050565b6108ef816108da565b82525050565b600060e08201905061090a600083018a61083b565b818103602083015261091c81896108a1565b905061092b604083018861083b565b610938606083018761083b565b610945608083018661083b565b61095260a08301856108e6565b61095f60c08301846108e6565b98975050505050505050565b60008060008060808587031215610985576109846107ce565b5b6000610993878288016107f9565b94505060206109a4878288016107f9565b93505060406109b5878288016107f9565b92505060606109c6878288016107f9565b91505092959194509250565b600080fd5b600080fd5b7f4e487b7100000000000000000000000000000000000000000000000000000000600052604160045260246000fd5b610a1482610890565b810181811067ffffffffffffffff82111715610a3357610a326109dc565b5b80604052505050565b6000610a466107c4565b9050610a528282610a0b565b919050565b600067ffffffffffffffff821115610a7257610a716109dc565b5b610a7b82610890565b9050602081019050919050565b82818337600083830152505050565b6000610aaa610aa584610a57565b610a3c565b905082815260208101848484011115610ac657610ac56109d7565b5b610ad1848285610a88565b509392505050565b600082601f830112610aee57610aed6109d2565b5b8135610afe848260208601610a97565b91505092915050565b60008060408385031215610b1e57610b1d6107ce565b5b6000610b2c858286016107f9565b925050602083013567ffffffffffffffff811115610b4d57610b4c6107d3565b5b610b5985828601610ad9565b9150509250929050565b7f4e487b7100000000000000000000000000000000000000000000000000000000600052602260045260246000fd5b60006002820490506001821680610baa57607f821691505b602082108103610bbd57610bbc610b63565b5b50919050565b7f4e487b7100000000000000000000000000000000000000000000000000000000600052603260045260246000fd5b7f5370656e6420616c7265616479207265736f6c76656400000000000000000000600082015250565b6000610c28601683610855565b9150610c3382610bf2565b602082019050919050565b60006020820190508181036000830152610c5781610c1b565b9050919050565b7f4e487b7100000000000000000000000000000000000000000000000000000000600052601160045260246000fd5b6000610c98826107d8565b9150610ca3836107d8565b9250828202610cb1816107d8565b91508282048414831517610cc857610cc7610c5e565b5b5092915050565b7f4e487b7100000000000000000000000000000000000000000000000000000000600052601260045260246000fd5b6000610d09826107d8565b9150610d14836107d8565b925082610d2457610d23610ccf565b5b828204905092915050565b6000604082019050610d44600083018561083b565b610d5160208301846108e6565b9392505050565b60008190508160005260206000209050919050565b60006020601f8301049050919050565b600082821b905092915050565b600060088302610dba7fffffffffffffffffffffffffffffffffffffffffffffffffffffffffffffffff82610d7d565b610dc48683610d7d565b95508019841693508086168417925050509392505050565b6000819050919050565b6000610e01610dfc610df7846107d8565b610ddc565b6107d8565b9050919050565b6000819050919050565b610e1b83610de6565b610e2f610e2782610e08565b848454610d8a565b825550505050565b600090565b610e44610e37565b610e4f818484610e12565b505050565b5b81811015610e7357610e68600082610e3c565b600181019050610e55565b5050565b601f821115610eb857610e8981610d58565b610e9284610d6d565b81016020851015610ea1578190505b610eb5610ead85610d6d565b830182610e54565b50505b505050565b600082821c905092915050565b6000610edb60001984600802610ebd565b1980831691505092915050565b6000610ef48383610eca565b9150826002028217905092915050565b610f0d8261084a565b67ffffffffffffffff811115610f2657610f256109dc565b5b610f308254610b92565b610f3b828285610e77565b600060209050601f831160018114610f6e5760008415610f5c578287015190505b610f668582610ee8565b865550610fce565b601f198416610f7c86610d58565b60005b82811015610fa457848901518255600182019150602085019450602081019050610f7f565b86831015610fc15784890151610fbd601f891682610eca565b8355505b6001600288020188555050505b505050505050565b6000604082019050610feb600083018561083b565b8181036020830152610ffd81846108a1565b9050939250505056fea2646970667358221220ffd4bc1f4ff4317f878de9d8ed039666dd12df6255c229c9d4d3ad3687ab416e64736f6c634300081c0033",
  "linkReferences": {},
  "deployedLinkReferences": {}
}